:020000040800F2
:10000000E01E0020BD5C0008D15D0008D55D000841
:10001000D95D0008DD5D0008E15D0008000000001A
:10002000000000000000000000000000E55D000886
:10003000E95D000800000000ED5D0008B130000837
:10004000F15D0008F55D0008F95D0008FD5D000840
:10005000015E0008055E0008095E00080D5E0008EC
:10006000115E0008155E0008195E00081D5E00089C
:10007000215E0008255E0008295E00082D5E00084C
:10008000315E0008355E0008395E00083D5E0008FC
:10009000E95B0008415E0008455E0008495E000813
:1000A0004D5E000835310008515E0008555E0008BD
:1000B000595E00085D5E0008615E0008655E00082C
:1000C000695E00086D5E0008715E0008755E0008DC
:1000D000795E00082B120008AD4000086955000841
:1000E0007D5E0008815E0008F15B0008DFF8D41A2D
:1000F0004888002802D04888401E48808888002808
:1001000002D08888401E8880B1F80A04002804D0F4
:10011000B1F80A04401EA1F80A0470470180704734
:100120000088002801D1012000E00020C0B2704703
:100130000088002801D0012000E00020C0B27047F4
:10014000DFF8800A002180F80814002180F80914E3
:10015000002180F82E14002180F82F14704780B5FC
:1001600001F010F80021DFF85C0AA0F8061401BDC8
:10017000F8B50400200001F013F90100DFF8440A8B
:10018000B0F8062417000B00FFB2DBB29F422DD35C
:1001900000231E0000231D002B00DBB203449B79CB
:1001A0003700FFB2E75DBB4209D1761C37000B0078
:1001B000FFB2DBB29F4212D12800C0B217E0330079
:1001C000DBB2012B09D12B00DBB203449F792378EA
:1001D0009F4202D101231E0001E000231E006D1C7E
:1001E0002F001300FFB2DBB29F42D5D3FF20F2BD38
:1001F00070B504000E000025280080B2205CC0B25B
:10020000000901F0E8F8C0B200F0D2FF280080B287
:10021000205C10F00F0001F0DEF8C0B200F0C8FF63
:100220006D1C2900300089B280B28142E4D370BDD8
:1002300010B5040060A001F0B7F9DFF88C0901F0F7
:10024000B3F92000C0B201280DD007D3032814D081
:100250000ED305281BD015D306281DD0DFF86C0956
:1002600001F0A2F91CE0DFF8680901F09DF917E040
:10027000DFF8600901F098F912E0DFF85C0901F09D
:1002800093F90DE0DFF8540901F08EF908E0DFF88A
:10029000500901F089F903E0DFF8480901F084F919
:1002A000DFF82009047010BD1CB5040001208DF892
:1002B00000002088002803D0B0F5A67F10D01DE0F4
:1002C0000020A070FFF74BFFDFF81C0900F097FF3C
:1002D000C821DFF81809FFF721FF4FF4A67020802E
:1002E000DFF80809FFF71CFF002801D100200BE010
:1002F0000120A07000202080022005E000208DF861
:10030000000000202080032016BD38B50400012025
:100310008DF800002188002904D040F26710814246
:1003200016D041E00020A0704FF47A71DFF8C008C9
:10033000FFF7F4FEFFF713FFDFF8B80800F05FFFE8
:100340003221DFF8A808FFF7E9FE40F267102080AD
:10035000DFF87058A81CFFF7E3FE002801D1002049
:1003600028E0DFF8B40BFFF703FFA07005F20A45A1
:100370002800FFF7DDFE002802D0A078FF28D9D0A2
:100380002800FFF7CDFE002808D0A078FF2805D16F
:100390000320A0700020208002200BE00120A0702C
:1003A00000202080022005E000208DF800000020C1
:1003B0002080032032BD00000D0A000038B5040083
:1003C00001208DF800002188002918D04FF4C77053
:1003D000091A29D00E3962D0153900F0A2801339DC
:1003E00000F0D980133900F010810E3900F04781F8
:1003F000153900F07C81133900F0B381DFE1002072
:10040000A070C821DFF8E807FFF788FEFFF7A7FE16
:10041000DFF8E00700F0F3FE3221DFF8D007FFF746
:100420007DFE4FF4C7702080DFF8EC0AFFF7A0FED6
:10043000A070C0B2FF2807D1DFF8B007FFF770FE49
:10044000002801D10020C0E1DFF8A4572800FFF701
:100450006FFE002802D0A078FF28D7D02800FFF731
:100460005FFE002808D0A078FF2805D10320A070E7
:10047000002020800220A8E14FF47A712800FFF7C5
:100480004DFEFFF76CFEDFF8940A00F0B8FE322153
:10049000DFF85807FFF742FE4FF4CE702080DFF8F8
:1004A0002457A81CFFF73CFE002801D100208CE156
:1004B000DFF86C0AFFF75CFEA070C0B2FF2806D020
:1004C000A0782844807A312801D0FF20A07005F25E
:1004D0000A452800FFF72CFE002802D0A078FF284C
:1004E000CFD02800FFF71CFE002808D0A078FF28F6
:1004F00005D10320A07000202080022065E1C821E2
:100500002800FFF70BFEFFF72AFEDFF8180A00F0BD
:1005100076FE3221DFF8D406FFF700FE40F2B1107C
:100520002080DFF8F409FFF723FEA070C0B2FF2897
:1005300007D1DFF8B806FFF7F3FD002801D100204E
:1005400043E1DFF8AC562800FFF7F2FD002802D0A7
:10055000A078FF28D7D02800FFF7E2FD002808D0B8
:10056000A078FF2805D10320A07000202080022061
:100570002BE1C8212800FFF7D1FDFFF7F0FDDFF8E0
:10058000D00A00F03CFE3221DFF86006FFF7C6FD1E
:100590004FF4E2702080DFF88009FFF7E9FDA070DA
:1005A000C0B2FF2807D1DFF84406FFF7B9FD0028E5
:1005B00001D1002009E1DFF838562800FFF7B8FD27
:1005C000002802D0A078FF28D7D02800FFF7A8FD88
:1005D000002808D0A078FF2805D10320A0700020B3
:1005E00020800220F1E0C8212800FFF797FDFFF7E7
:1005F000B6FDDFF8600A00F002FE3221DFF8EC05FC
:10060000FFF78CFD40F2D7102080DFF80C09FFF7D0
:10061000AFFDA070C0B2FF2807D1DFF8D005FFF70B
:100620007FFD002801D10020CFE0DFF8C45528006D
:10063000FFF77EFD002802D0A078FF28D7D0280041
:10064000FFF76EFD002808D0A078FF2805D1032011
:10065000A070002020800220B7E0C8212800FFF70A
:100660005DFDFFF77CFDDFF8F00900F0C8FD3221E9
:10067000DFF87805FFF752FD40F2E5102080DFF843
:100680004455A81CFFF74CFD002801D100209CE038
:10069000DFF8C809FFF76CFDA07005F20A452800D5
:1006A000FFF746FD002802D0A078FF28D9D0280007
:1006B000FFF736FD002808D0A078FF2805D10320D9
:1006C000A0700020208002207FE0C8212800FFF7D2
:1006D00025FDFFF744FDDFF8880900F090FD322189
:1006E000DFF80805FFF71AFD4FF4FD702080DFF8F2
:1006F0002808FFF73DFDA070C0B2FF2807D1DFF842
:10070000EC04FFF70DFD002801D100205DE0DFF8CB
:10071000E0542800FFF70CFD002802D0A078FF2845
:10072000D7D02800FFF7FCFC002808D0A078FF28CD
:1007300005D10320A07000202080022045E0C821C0
:100740002800FFF7EBFCFFF70AFDDFF8180900F0BF
:1007500056FD3221DFF89404FFF7E0FC40F20D2053
:100760002080DFF8B407FFF703FDA070C0B2FF28B8
:1007700007D1DFF87804FFF7D3FC002801D100206F
:1007800023E0DFF86C542800FFF7D2FC002802D0E9
:10079000A078FF28D7D02800FFF7C2FC002808D097
:1007A000A078FF2805D10320A0700020208002201F
:1007B0000BE00120A07000202080022005E0002036
:1007C0008DF8000000202080032032BD7CB504009D
:1007D00001208DF800002188002918D040F22F2038
:1007E000091A2AD00E3966D00B3900F088800839F2
:1007F00000F09B800D3900F0C380C91F00F0E48039
:100800000C3900F0F680133900F01D813EE1002024
:10081000A0704FF47A71DFF8D803FFF77FFCFFF781
:100820009EFCDFF8F80600F0EAFC3221DFF8BC039A
:10083000FFF774FC40F22F202080DFF88863B51C9E
:100840002800FFF76DFC002801D1002024E1DFF82B
:10085000D006FFF78DFCA070C0B2FF2806D0A078AC
:100860003044807A312801D0FF20A07006F20A4679
:100870003000FFF75DFC002802D0A078FF28CED022
:100880003000FFF74DFC002808D0A078FF2805D1E4
:100890000320A070002020800220FDE0FFF75FFC15
:1008A000DFF8C40700F0ABFC32212800FFF736FC6C
:1008B00040F23D202080DFF834532800FFF730FC61
:1008C000002801D10020E7E0DFF8A007FFF750FC87
:1008D000A070C0B2FF2805D00120A07000202080A9
:1008E0000220D9E0FFF73BFCDFF8840700F087FC2B
:1008F00032212800FFF712FC4FF412702080BB4D0C
:100900002800FFF70DFC002801D10020C4E0FFF70C
:1009100026FCDFF8600700F072FC40F6B8312800D2
:10092000FFF7FCFB4FF414702080DFF84C572800D1
:10093000FFF71EFCA070C0B2FF2806D1AB48FFF73E
:10094000EFFB002801D10020A6E02800FFF710FCF3
:10095000A070C0B2FF2805D10320A0700020208025
:10096000022099E0FFF7FBFBDFF8100700F047FCDF
:1009700040F6B8319D48FFF7D1FB40F25D20208062
:10098000DFF8FC562800FFF7F3FBA070C0B2FF2889
:1009900006D19648FFF7C4FB002801D100207BE078
:1009A0002800FFF7E5FBA070C0B2FF2805D10320A7
:1009B000A0700020208002206EE032218B48FFF7DB
:1009C000ADFB4FF419702080884D2800FFF7A8FB7D
:1009D000002801D100205FE0FFF7C1FBDFF8A4068B
:1009E00000F00DFC32212800FFF798FB4FF41C703B
:1009F0002080DFF824552800FFF7BAFBA070C0B2B2
:100A0000FF2806D17948FFF78BFB002801D1002091
:100A100042E02800FFF7ACFBA070C0B2FF2805D170
:100A20000320A07000202080022035E0FFF797FB14
:100A3000DFF8540600F0E3FB32216C48FFF76EFB51
:100A400040F283202080DFF8D004FFF791FBA070F4
:100A5000C0B2FF2806D16548FFF762FB002801D12C
:100A6000002019E0DFF82406FFF782FBA070C0B277
:100A7000FF2805D10320A0700020208002200BE079
:100A80000120A07000202080022005E000208DF8C9
:100A9000000000202080032076BD38B5040001202E
:100AA0008DF800002188002906D040F2A620091AFE
:100AB00016D0113954D07EE00020A0704FF47A7126
:100AC0004B48FFF72BFBFFF74AFBDFF8500400F021
:100AD00096FB32214548FFF721FB40F2A6202080FB
:100AE000384DA81CFFF71CFB002801D1002068E04E
:100AF000DFF82C04FFF73CFBA070C0B2FF2806D043
:100B0000A0782844807A312801D0FF20A07005F217
:100B10000A452800FFF70CFB002802D0A078FF2828
:100B2000D1D02800FFF7FCFA002808D0A078FF28D1
:100B300005D10320A07000202080022041E0C821C0
:100B40002800FFF7EBFAFFF70AFBDFF81C0500F0BF
:100B500056FB32212548FFF7E1FA40F2B72020800A
:100B6000184DA81CFFF7DCFA002801D1002028E06E
:100B7000DFF8F804FFF7FCFAA07005F20A45280038
:100B8000FFF7D6FA002802D0A078FF28DBD0280093
:100B9000FFF7C6FA002808D0A078FF2805D1052065
:100BA000A0700020208002200BE00120A070002017
:100BB0002080022005E000208DF800000020208029
:100BC000032032BDFC000020E45C0008845B0008C8
:100BD000245B00083C5B0008FC5B0008985B000895
:100BE000545B00080C5C0008085D0008FE00002053
:100BF00006050020845D00082DE9F843040001206B
:100C00008DF80000208800280CD040F2FB21401A0B
:100C100052D0C01F66D0133800F08580123800F023
:100C2000D18071E10020A070DFF86454686B002867
:100C300061D1DFF86064002086F8360495F8400042
:100C4000002812D0012086F8360495F839000028D3
:100C500005D10420A0700020208002205AE195F8E0
:100C60003900401E85F8390005E0DFF82C14DFF864
:100C70002C0400F082FD06F20627DFF820542B003A
:100C80000022390096F8360400F070FFFFF767FA8B
:100C9000DFF80C0400F0B3FAB5F8CA103800FFF71B
:100CA000A7FADFF8000400F0AAFA3221B01CFFF71F
:100CB00035FA40F2FB202080DFF8EC532800FFF7E4
:100CC0002FFA002801D1002024E1FFF748FADFF8CD
:100CD000DC0300F094FA32212800FFF71FFA40F2FB
:100CE00002302080DFF8C003FFF71AFA002801D194
:100CF00000200FE109E000F081FD002805D095F803
:100D00004000002801D100206863FFF728FADFF8CF
:100D1000A00300F074FA3221DFF88C03FFF7FEF92C
:100D200040F215302080DFF86C53AE1C3000FFF726
:100D3000F7F9002801D10020ECE0DFF87803FFF795
:100D400017FAA070A078FF2800F0D880A078284477
:100D5000C01D01F091FBA5F83804B5F8380400284F
:100D600000F0CC80B5F8380440F29911884203DBDA
:100D70004FF4CC70A5F83804FFF7F1F9DFF8380329
:100D800000F03DFA05F23C41B5F8380400F03EFBB6
:100D900095F83C0400F00CFA95F83D0400F008FAD0
:100DA000B5F83804642803DB95F83E0400F000FA37
:100DB0000D2000F0FDF932213000FFF7AFF940F2CD
:100DC00027302080B34EB01CFFF7AAF9002801D1CC
:100DD00000209FE0B748FFF7CBF9A070A078FF286C
:100DE00000F08C80FF2086F8360406F20627B6F85D
:100DF0003824A078304410F10B01380001F0B2F92A
:100E0000DFF8B8924946380001F06DF886F83604EC
:100E1000C0B201281BD02ED3032821D02BD29C494D
:100E200091F8430001280AD1202511F1440611F15F
:100E300010072A003100380001F064FB06E091F849
:100E40003A00002802D0002081F8400056E0904986
:100E500091F83A00002802D0002081F840004DE0CF
:100E60008B4991F83A00002804D0002081F8400016
:100E70000020486342E0B6F83824A078304410F1EE
:100E80000B01380001F06EF9814D15F1100849464B
:100E9000404600F066FD4946380001F024F886F827
:100EA0003604C0B2012817D028D303281CD025D27D
:100EB00095F84300012807D1202644353200290047
:100EC000404601F01FFB06E095F83A00002802D0EA
:100ED000002085F8400011E095F83A00002802D083
:100EE000002085F8400009E095F83A00002804D079
:100EF000002085F8400000206863FFE70120A07013
:100F000000202080022005E000208DF80000002055
:100F100020800320BDE8F2838C5D0008F05C0008AF
:100F2000FC5C00081C5C000810B55A4800780028DA
:100F300009D002282CD019D3042846D033D3062850
:100F400057D06DD383E000215D48018000215D48CA
:100F5000018000215C48018000215C480180002163
:100F60005B4801800120FFF763F970E0544C2000DA
:100F7000FFF7CBF9A078012802D0032804D006E0BF
:100F80000320FFF755F902E00220FFF751F95EE078
:100F90004C4C2000FFF788F9A078012802D10120ED
:100FA000FFF746F953E0484C2000FFF707FAA07816
:100FB000012802D0032804D006E00420FFF738F906
:100FC00002E00220FFF734F941E0424C2000FFF735
:100FD000FDFBA078012802D0032806D008E001F02C
:100FE0002EF90620FFF724F902E00220FFF720F98E
:100FF0002DE0374C2000FFF7FFFDA078012802D03C
:10100000042804D00BE00520FFF712F907E020497F
:1010100091F8380081F839000520FFF709F916E04A
:101020002A4C2000FFF739FDA078012804D00328BE
:101030000AD0052804D00AE00620FFF7F9F806E0F8
:101040000420FFF7F5F802E00220FFF7F1F810BDE9
:10105000145D00082C5C00083C5C0008945D0008EE
:10106000AC5B0008205D00085C5C0008EC5A0008DE
:101070004C5C0008405A00086C5C00089459000859
:101080007C5C0008C05B00088C5C00082C5D0008DC
:1010900090180020FC000020E019002064170020B8
:1010A0009C5C0008C85D0008FE000020AC5C0008E5
:1010B000385D0008505D0008445D00084C1A0020AF
:1010C000941A0020981A00209C1A0020A41A0020CC
:1010D000A81A0020A01A002038B586B0040000F03D
:1010E00051F800F057F801214FF4804001F0DAFA8E
:1010F00025208DF8040000208DF8050000208DF8D3
:10110000060001208DF8070001A801F0FEFA4FF457
:101110000070ADF8000018208DF8030003208DF852
:101120000200984D6946280001F02CFB4FF48060C6
:10113000ADF8000048208DF803006946280001F052
:1011400021FB02940020ADF80C000020ADF80E0049
:101150000020ADF810000020ADF814000C20ADF810
:101160001200894D02A9280001F0A6FB01212800E8
:1011700001F018FC012240F22551280001F021FC69
:1011800007B030BD81480021A0F804140021A0F868
:10119000061470477D480021A0F808140021A0F82B
:1011A0000A1470477A49088850F004000880704794
:1011B00038B504007548B0F808546D1CAD05AD0D88
:1011C0002A00B0F80A1492B28A42F9D0290089B2F2
:1011D00001440C71A0F8085490F80D1411F0FD01B1
:1011E00080F80D1490F80D1411F0FB0180F80D1427
:1011F000012240F22771644801F0E3FB31BD38B5AC
:101200000400002025002878002804D02878FFF763
:10121000CFFF6D1CF7E75AA000F0C6F95D4800F05B
:10122000C3F9200000F0C0F931BD2DE9F84F564F49
:1012300040F225584146380001F004FC00282ED029
:10124000380001F0FBFB04005048B0F80414491CBE
:1012500011F003010E00A0F80464310089B2445477
:10126000DFF83491B9F80604002805D144A000F055
:101270009BF94A4800F098F9B9F8061440F2FF10BB
:10128000814208D2B9F8060448448471B9F80604CA
:10129000401CA9F806042000C0B200F054F940F246
:1012A000277B5946380001F0CDFB002831D0DFF80C
:1012B000DC90B9F8080406003100B9F80A0489B2D4
:1012C000814210D0B9F80A04401C8005800D050049
:1012D000A9F80A54280080B24844017989B238003C
:1012E00001F0A8FB15E040F2266A5146380001F0F3
:1012F000DEFB01225146380001F063FB0022594613
:10130000380001F05EFB99F80D0450F0020089F8F6
:101310000D0440F226694946380001F093FB00288D
:1013200020D04946380001F0C2FB184890F80D144F
:10133000890717D590F80D1411F0FD0180F80D14F0
:1013400090F80D1451F0040180F80D14FFF72AFFF6
:1013500000224946380001F034FB012241463800A2
:1013600001F02FFB4FF45871380001F06BFB00289F
:1013700004D04FF45871380001F099FBBDE8F18FAB
:101380000D0A000000080140003801403C05002023
:101390000C380140B45D0008FC000020BC5D000872
:1013A00000F10103810704D010F8011B820781B10D
:1013B000FAD10268A2F10131914311F0803104BFEA
:1013C00050F8042FF6E709BAB1FA81F100EBD10029
:1013D000401CC01A70470100C9B20A2901DA303036
:1013E00000E03730C0B270470100C9B230390A2975
:1013F00002DA3038C0B208E00100C9B2612902DA6D
:101400003738C0B201E05738C0B27047F0B4002599
:10141000020092B2002A2AD00022130042F2107277
:1014200014001A00D2B2052A24D20700BFB222004B
:1014300092B297FBF2F21600320092B2002A03D168
:101440002A00D2B2002A0CD016F130020A70491CD0
:1014500080B23700BFB2220092B202FB1700012215
:101460001500A4B20A2294FBF2F45B1CD9E73022E7
:101470000A70491C00220A70F0BC70470100080085
:1014800080B2000A50EA012080B27047010231F0B8
:10149000FF11000A30F0FF2008435FEA3040704738
:1014A0001CB54FF48050ADF8000014208DF80300F7
:1014B00003208DF802003F4C6946200001F062F9DC
:1014C0004FF48051200001F0F2F93B4801F040FB5D
:1014D0004FF48051200001F0E6F901F073FB01F0B8
:1014E000ABFB01F0C2FB01F06DFC13BD3349B1F859
:1014F00000345B1CDB05DB0DA1F800341A0092B24E
:101500008854704738B500F037F800281AD02C4CB2
:1015100094F84100002815D10020050000F039F8AA
:1015200060556D1C00F028F8002801D0402DF5D33F
:1015300084F8405094F84010200001F028FC02206C
:1015400084F8410031BD1F49B1F800345B1C9B0594
:101550009B0D1A0092B28854A1F80034704738B538
:101560000400002025002878002804D02878FFF700
:10157000EAFF6D1CF7E731BD1249B1F80204B1F87A
:10158000001480B2814201D0012000E00020C0B2EE
:1015900070470C48B0F80214491C8905890DA0F861
:1015A000021489B2405C704710B504002000FFF7B8
:1015B000D6FF10BD00080140A08601004C090020A4
:1015C0005C1900206411002030B41D4A92F80031EB
:1015D0005B1C13F01F031D0092F80141EDB2A54200
:1015E00002D1012482F802411C00E4B202EBC404DF
:1015F000C4E9000182F8003130BC704710B4104AD1
:1016000092F8011192F801315B1C13F01F0382F86C
:101610000131DBB202EBC304D4E90023C0E90023AB
:1016200010BC7047064991F8010191F80011C0B251
:10163000814201D0012000E00020C0B270470000CC
:10164000701500202DE9FC4707000C0015001E0056
:101650008DF800708DF801408DF802505FF004099C
:10166000B0460DF1040A4A464146504600F04AFF92
:10167000DDE90001FFF7A8FFBDE8F3872DE9F041A0
:1016800004000D002878207068786070A878A07039
:101690005FF004082E1DE71C42463100380000F0C0
:1016A00031FFBDE8F0812DE9F84F8AB005000C004C
:1016B000012085F821000420099014F11000089001
:1016C00015F12206099A0899300000F01BFF04204A
:1016D000079014F11400069015F12606079A069952
:1016E000300000F00FFF0420059014F11800049062
:1016F00015F12A06059A0499300000F003FF04262C
:1017000014F11C00039015F12E07320003993800E4
:1017100000F0F8FE002000905FF004096F4615F11C
:1017200032084A463900404600F0ECFE5FF00408FB
:1017300014F12400029015F1360A424602995046EF
:1017400000F0E0FE5FF0040A14F12800019015F1AA
:101750003A0B52460199584600F0D4FE94F82C00FA
:1017600085F83E0094F82D0085F83F0094F82E008F
:1017700085F840000BB0BDE8F08F2DE9FE43040072
:101780000D00FFF74FFF00281CD000200600684620
:10179000FFF734FF69463200D2B20720424304EB20
:1017A00002005030FFF76AFF9DF80100012823D0A6
:1017B000761CFFF737FF00281ED03000C0B2082883
:1017C000E5DB19E0012084F850001F2084F8510067
:1017D000002084F8520004275FF0000814F1530938
:1017E00042463900484601F00BFB012084F84F00C7
:1017F00029002000FFF757FFBDE8F78380B5FFF70A
:1018000011FF002801D0012000E00020C0B202BD7D
:101810002DE9F84F05000C0016001F00DDF82880A8
:101820005FF0100BB946AA465A464946504600F0AA
:1018300069FE002C0AD1DFF8B89A4946404601F00B
:10184000A9FB4946280001F0AFFB1FE05FF000094B
:101850004846C0B2215C4846C0B2305C4140484670
:10186000C0B2285C41404846C0B2295419F1010970
:101870004846C0B21028EBDBDFF874AA5146404658
:1018800001F088FB5146280001F08EFBBDE8F18F86
:101890002DE9F84F05000C0016001F00DDF8288028
:1018A0005FF0100BB946AA465A464946504600F02A
:1018B00029FEDFF83CAA5146404601F06BFB514639
:1018C000280001F07AFB002C13D000210800C0B2E0
:1018D000225C0800C0B2305C42400800C0B2285C04
:1018E00042400800C0B22A54491C0800C0B2102867
:1018F000ECDBBDE8F18FDFF8FC19486B002802D063
:10190000486B401E4863C86B002802D0C86B401E5D
:10191000C863DFF8E4190868401C08607047036872
:10192000DFF8D829DFF8D81902FB03130360006839
:10193000000EC0B270477CB504000D00DFF8B80996
:101940000068009000266846FFF7E9FF3100C9B241
:101950006054761C31002800C9B2C0B28142F2D373
:1019600073BD2DE9F04F87B005000C0008200690EC
:10197000601C05902E00069A0599300000F0C2FD0B
:101980000220049014F11100039015F10806049A46
:101990000399300000F0B6FD042614F1090002900E
:1019A00015F10A0732000299380000F0ABFD02275A
:1019B00014F11300019015F10E083A000199404608
:1019C00000F0A0FD607B2874A07B6874E07BA874A5
:1019D000207CE8745FF00A0ADFF8288915F1140901
:1019E00052464146484600F08DFD5FF0020914F171
:1019F0001500009015F11E0B4A460099584600F05C
:101A000081FD00210800C0B22A5CDFF8FC38080024
:101A1000C0B2185C42400800C0B22A54491C0800F9
:101A2000C0B22028EEDB07B0BDE8F08F70B5DFF85C
:101A3000C4280120106000200021C2E902012024F6
:101A4000002512F110062A002100300001F0D8F91B
:101A500070BD2DE9FC47DFF8B4480220207008254E
:101A6000DFF8AC68671C2A003100380000F04AFD3E
:101A7000DFF8A0080068FFF709FD00900427E8469A
:101A800014F109093A004146484600F03BFD0120A7
:101A900060731720A0730020E073012020745FF0B2
:101AA0000609DFF874A811344A465146200000F0B8
:101AB00029FDBDE8F3872DE9F04704000D002878E3
:101AC000207008266F1C14F10108320039004046CE
:101AD00000F018FD5FF0040815F1090914F1090A76
:101AE00042464946504600F00DFD687B6073A87B76
:101AF000A073E87BE073287C2074BDE8F08738B5DC
:101B000004000D0021782878814201D000202CE0CB
:101B10000822611C681C01F059FA002801D000203D
:101B200023E0042214F1090115F1090001F04EFA35
:101B3000002801D0002018E0617B687B814201D041
:101B4000002012E0A17BA87B814201D000200CE0A4
:101B5000E17BE87B814201D0002006E0217C287CEB
:101B6000814201D0002000E0012032BD2DE9F54F77
:101B700089B088461C0094F84F00002803D094F8E0
:101B80004F00092800DBABE10227DFF890974546BC
:101B90003A004946280000F0B5FC94F84F000725AC
:101BA00005FB00F52035290089B28B31102691FB09
:101BB000F6F006FB1016300080B2002801D0D6F1F6
:101BC00010067019A330ADF80800BDF80800FFF743
:101BD00055FCADF8060002270DF1060918F1020ABE
:101BE0003A004946504600F08DFC062088F8040073
:101BF0009DF82400002804D1DFF8F8160868401C7E
:101C000008605FF0040BDFF8EC76BA4618F10509BE
:101C10005A465146484600F075FC207888F809007D
:101C2000DFF8E896494618F10A00FFF744FF9DF8EF
:101C3000240000280BD05FF0400A601C009018F1CF
:101C40001B0B52460099584600F05CFC0EE0202128
:101C5000601CFFF770FE5FF0400A601C009018F1F6
:101C60001B0B52460099584600F04CFCD7E9020184
:101C7000401C71F1FF31C7E902010820079017F1FC
:101C80000800069018F15B0A079A0699504600F082
:101C900039FC494618F16300FFF70DFF94F8410045
:101CA00088F874005FF0080A14F14200059018F1FA
:101CB000750952460599484600F024FC5FF0050975
:101CC00014F14A00049018F17D0B4A4604995846D5
:101CD00000F018FC94F84F0088F8820094F84F1038
:101CE00007204143039114F15000009018F1830B39
:101CF000039A0099584600F005FC300080B2002895
:101D000011D015F16300ADF80400B3461FFA8BFB48
:101D10005FF00009BDF8040008EB000A4A46594686
:101D2000504601F06DF816EB050A1AF1630A94F8B3
:101D30008810504680B208F8001016EB050919F11A
:101D400064094020079000200690484680B208EBC6
:101D5000000B069A0799584601F052F8402005906A
:101D600014F189000490484680B208EB000B059AF4
:101D70000499584600F0C6FB7019A430ADF8040071
:101D8000280080B2FFF77AFBADF80600022003902E
:101D90000DF106000090BDF8040008EB000B039A5B
:101DA0000099584600F0AEFB0A9800280BD0BDF809
:101DB00008B01BF1030BC146DDF828A05A4649467E
:101DC000504600F09FFB5FF0000B10200390584638
:101DD00080B2000140441B300090DFF84495CA46B1
:101DE000039A0099504600F08DFB584680B20028B7
:101DF00016D117F11000009018F11B0300220021EA
:101E000018F11B00FFF704FD5FF0100ACDF80090F9
:101E1000DFF8109552460099484600F073FB1FE02A
:101E2000DFF800A517F110000090584680B20001BD
:101E3000404410F11B035246584680B20001404412
:101E400010F10B01584680B2000140441B30FFF7EF
:101E5000DFFC10200090009A4946504600F052FBEB
:101E60001BF1010B290089B2300080B241188B317F
:101E7000102091FBF0F1584680B28842A5DB022287
:101E80000021100080B218F800004118521C130005
:101E90009BB2BDF80800C01C8342F2DB7319A63365
:101EA000180080B208F80010BDF80800001DA4F862
:101EB000CA006420B7F830C000FB0CFCC7F834C07F
:101EC00097F83AC000FB0CF0F8639DF82400002856
:101ED00003D197F8380087F83900012087F84000CF
:101EE0000BB0BDE8F08F2DE9F24F84B00400022260
:101EF000DFF82814200001F069F8002801D0FF2045
:101F0000F7E0607A5A2801D0FF20F2E0DFF8E463BE
:101F100004223100601D01F059F8002801D0FF2093
:101F2000E7E0049914F10A00FFF7E9FD002801D168
:101F3000FF20DEE0022714F1020801AD3A0041461D
:101F4000280000F0DFFABDF80400FFF797FA05005B
:101F5000280080B2BB2801DAFF20CAE002215FF02E
:101F60000009080080B2205C10EB0909491C080038
:101F700080B22A0092B2D21C9042F2DB48462A007C
:101F800092B22244D278C0B2904201D0FF20B0E099
:101F90002A0092B2183A102092FBF0F08DF8060059
:101FA00000275FF0100A380080B2000120441B3087
:101FB0000090DFF86C83C34652460099584600F003
:101FC000A1FA380080B2002814D116F11000009058
:101FD00014F11B030022002114F11B00FFF758FC31
:101FE0005FF0100ADFF83CB352464146584600F015
:101FF00089FA1FE0DFF82CA316F1100000903800DA
:1020000080B20001204410F11B035246380080B218
:102010000001204410F10B01380080B2000120447F
:102020001B30FFF735FC5FF0100B5A464146504617
:1020300000F068FA7F1C38009DF8061080B289B263
:102040008842AED3049914F16300FFF758FD0028CD
:1020500001D1FF204DE0280080B2412802DBB5F11C
:10206000400801E05FF04008404680B2205C86F8FE
:1020700043005FF0400A404680B22044401C00907C
:1020800016F1440B52460099584600F03BFA94F87A
:102090007410491E02292BD80820039014F15B000C
:1020A000029016F1080A039A0299504600F02AFAA3
:1020B0005FF0020A14F1750000900DF1040B524616
:1020C0000099584600F01EFABDF80400FFF7D6F953
:1020D0003086318E64204143716394F8770086F82E
:1020E000380094F8780086F83A0094F8740000E01C
:1020F000FF2005B0BDE8F08F0300DBB2002B02D05B
:10210000894B59701EE00B00DBB2012B09D019D3AB
:10211000032B0CD008D3052B0FD00BD3062B0FD0DD
:1021200010E0814B9A700DE07F4BDA700AE07E4B35
:102130001A7107E07C4B5A7104E07B4B9A7101E005
:10214000794BDA71704710B4774B187001245C72C8
:102150001F249C720024DC7200241C7300245C7316
:1021600010BC7047F8B504000D001700F80725D41F
:102170000026300080B215F81000FFF735F9310065
:1021800089B26054300080B2215C0901300080B215
:102190002154300080B205EB40004078FFF724F96D
:1021A000310089B2615C0843310089B26054761C09
:1021B0003100380089B280B28142DAD3F1BD2DE915
:1021C000F04704000D002078287060786870A078CF
:1021D000A8700426271D15F1040832003900404676
:1021E00000F090F95FF0040A14F1080815F10809ED
:1021F00052464146484600F085F9BDE8F0872DE992
:10220000F04704000D002878207068786070A87886
:10221000A07004262F1D14F1040832003900404636
:1022200000F070F95FF0040A15F1080814F10809CC
:1022300052464146484600F065F9BDE8F087F8B5DA
:10224000002200210220FFF77EFFFF220121002053
:10225000FFF752FFFF2202210020FFF74DFFFF2270
:1022600003210020FFF748FFFF2204210020FFF791
:1022700043FFFF2205210020FFF73EFFFF2206213A
:102280000020FFF739FFFFF7E4FBFFF7CFFB402407
:102290000025264E771C2A002100380000F0B0FDF2
:1022A0005720307013481E2101861E2180F83A10F5
:1022B000052180F83810F1BD1B4800210161FF2184
:1022C000017400214161002181610021C16100216F
:1022D00041620021816200218161002180F82C107F
:1022E000002180F82D10822180F82E107047000008
:1022F00074160020901800208C1A00200D6619001A
:102300005FF36E3CD85C0008845A00084C1A002029
:10231000745D0008C45D00087C5D0008AA25000803
:10232000641A0020741A0020E019002064170020AD
:102330002DE9F84F84B00BB100241C608346D846C9
:1023400001E008F1010898F80030A3F10900052820
:10235000F7D3202BF5D02D2B16BF2B2B18F8014BC4
:102360002B24002A019103D4012A01D0252A04DB61
:1023700000295AD0C1F800B057E0002A0CDD102A1D
:1023800004BF98F80000302802BF98F8010040F020
:102390002000782811D10CE098F80000302818BFF0
:1023A0000A220AD198F8010040F02000782803D1D1
:1023B000102208F1020800E00822CDF80C8001E0AC
:1023C00008F1010898F800003028F9D0064D7D4446
:1023D00016354FF0000905F12800CDF80880CA46EF
:1023E0008DF8000016460BE0AC34000007469DF85F
:1023F00000003F1ACA46FFB206FB097908F101083E
:1024000098F80010A1F141001A2838BF2031324657
:1024100005F1280000F00EFE0028E7D103994145A0
:1024200005D1019808B1C0F800B0002020E0029961
:10243000A85DA8EB0101091A002910D406DCB9EB4C
:10244000070703D3B7FBF6F0504508D0AFF3008081
:10245000049808B1012101604FF0FF3903E02D2CF1
:1024600008BFC9F10009019808B1C0F800804846CA
:1024700005B0BDE8F08F04E000E000000A22002172
:10248000F9E7002354E7F0B4024610689568131882
:10249000506803EB5004C00748BF4D44A3422DD001
:1024A00013F8016B16F0030004BF13F8010BC01CF6
:1024B00031090F2907D113F8011B0F3103E013F87D
:1024C000017B05F8017B401EF9D10029E6D013F805
:1024D000010BC6F38107032F08BF13F8017B00EB44
:1024E0000720404228440026B71E8F421EBF10F826
:1024F000017B05F8017B761CF6D1CFE7F0BC02F139
:102500000C00704762B38B0708D0521E11F8013BD4
:1025100000F8013B00F024808B07F6D1830740F0E0
:10252000208000BF103A07D330B4B1E83810103A19
:10253000A0E83810F9D230BC530724BFB1E8081026
:10254000A0E8081044BF51F8043B40F8043BD20710
:1025500024BF31F8022B20F8022B44BF0B78037004
:102560007047121F17D35B0009D151F8043B20F8C4
:10257000023B1B0C121F20F8023BF6D20BE051F875
:10258000043B00F8013B1B0A20F8023B1B0C121F06
:1025900000F8013BF3D238BF121D521E24BF11F8C0
:1025A000013B00F8013BF8D8704701004C49086036
:1025B00070472DE9F04F0100002300250020002680
:1025C000464FD7F800C01CF00C0C6246002A04D01D
:1025D000042A05D0082A06D023E0424A0A6022E0F5
:1025E000404A0A601FE03B6813F470133A6812F423
:1025F000803210009B0C9B1C1D00002804D13A4A1D
:1026000002FB05F20A600BE03A68920304D5364AF1
:1026100002FB05F20A6003E0324A02FB05F20A609F
:1026200001E0304A0A603C6814F0F0042409DFF845
:10263000BC9019F804E00A6832FA0EF24A603B686E
:1026400013F4E0631B0A19F803804A6832FA08F2AF
:102650008A603A6812F46052D20A19F80290D1F8EE
:1026600004A03AFA09FAC1F80CA0D7F800A01AF4AD
:10267000404A5FEA9A3A1E4F17F80AB0CF68B7FB94
:10268000FBF70F61BDE8F08F0A00D2B2002A04D038
:10269000184B1A6802431A6003E0164B1A6882430B
:1026A0001A6070470A00D2B2002A04D0124B1A688E
:1026B00002431A6003E0104B1A6882431A607047A5
:1026C0000A00D2B2002A04D00C4B1A6802431A60E6
:1026D00003E00A4B1A6882431A60704704100240F4
:1026E000D800424200127A0000093D00000000209C
:1026F0001000002014100240181002401C1002406C
:102700001B4A02431B490A607047F0B400220023B1
:102710000F24C17800291FD01649096811F4E0611F
:10272000D1F5E061090AD1F104052B00CC404678CF
:102730009E40857825402E43360132000E4E0578A6
:1027400072550125067816F01F06B5400B4F067826
:10275000761147F8265009E00121057815F01F058C
:10276000A940074E05786D1146F82510F0BC70475A
:102770000000FA050CED00E000E400E000E100E0FC
:1027800080E100E0F0B5002200235FF0000C00249F
:1027900000250026CF7817F00F0791F803E05FEAD5
:1027A000CE6E01D58A7817430A88D2B2002A34D077
:1027B0000268150000229446BCF1080F2CD20122B9
:1027C00012FA0CFE7446B1F800E014EA0E0E7346DD
:1027D000A3421ED15FEA8C0E74465FF00F0E1EFA04
:1027E00004FE7646B543AE4617FA04F555EA0E05E3
:1027F00091F803E0BEF1280F03D112FA0CF2426106
:1028000007E091F803E0BEF1480F02D112FA0CF292
:1028100002611CF1010CCFE705600A88B2F5807FE8
:1028200032DB4268150000229446BCF1080F2AD220
:102830005FF0010E1CF108021EFA02F214000A8871
:1028400022401300A3421BD15FEA8C0214000F2226
:10285000A2401600B5432A0017FA04F51543CA78BA
:10286000282A04D11CF108021EFA02F24261CA7839
:10287000482A05D11CF108021EFA02FEC0F810E039
:102880001CF1010CD1E74560F0BD10B4020000233B
:102890009468080080B2044201D0012000E00020CA
:1028A000C0B210BC70470A0092B2026170470A00C1
:1028B00092B24261704700002DE9F84F86B082461F
:1028C0000C000025002600275FF000085FF00009DB
:1028D000A0890028D346BAF810104CF6FF700140CA
:1028E000E088014300910098AAF81000BAF80C1093
:1028F0004EF6F3100140A08801432089014360890E
:10290000014300910098AAF80C00BAF814104FF691
:10291000FF400140A089014300910098AAF81400EB
:1029200001A8FFF746FE1E48834501D1049800E048
:102930000398BAF80C10090407D5192101FB00F11E
:1029400022685200B1FBF2F106E0192101FB00F10F
:1029500022689200B1FBF2F16422B1FBF2F31B0199
:102960001D002D097FF0630202FB0512BAF80C501E
:102970002D0408D5D60032366425B6FBF5F515F0E2
:1029800007052B4307E0160132366425B6FBF5F543
:1029900015F00F052B43AAF8083007B0BDE8F08FFB
:1029A000003801400A00D2B2002A04D0828952F4D1
:1029B0000052828104E083894DF6FF7213408381C7
:1029C00070472DE9F04100230024002500268C46A5
:1029D00040F66A171FFA8CFCBC4580460F00FFB218
:1029E0007F09FFB28C461FFA8CFC1CF01F0C5FF0B5
:1029F000010E1EFA0CFE012F02D118F10C0806E0A0
:102A0000022F02D118F1100801E018F11408130088
:102A1000DBB2002B06D0D8F800305EEA0303C8F81A
:102A2000003005E0D8F8003033EA0E03C8F8003073
:102A3000BDE8F081CA05D20D828070478088C0054C
:102A4000C00D7047F0B404000027002000220026CB
:102A50000D0040F66A13ADB29D420D00EDB26D0956
:102A6000EDB20B009BB213F01F035FF0010C1CFAD8
:102A700003F3012D02D1A089034006E0022D02D10B
:102A8000208A034001E0A08A03400A0092B2120AA1
:102A900092B21CFA02F220880240002B03D0002AD6
:102AA00001D0012000E00020C0B2F0BC704770B43B
:102AB000002200230D0040F66A14ADB2A5420E00BC
:102AC000B6B2360A0124B4402500ADB2ED4305800C
:102AD00070BC704736494878002802D04878401EBC
:102AE0004870704780B501210420FFF7DBFD01210C
:102AF0000820FFF7D7FD01211020FFF7D3FD0121AA
:102B00002020FFF7CFFD01210120FFF7CBFD01BD04
:102B100080B500F00FF8FFF7E5FFFEF7C1FC00F00D
:102B2000B5FA00F0D1FA00F03AFB5FF4E130FEF7BD
:102B3000D3FA01BD1F49086850F080700860002179
:102B40001D4801601D49086850F001000860704789
:102B500038B5040018480568482000FB04552800D3
:102B600000F064FB0028FAD131BD80B5FFF7D0FF3B
:102B700062B600F027F800F05FF800F076F800F099
:102B800021F90B490A20487048780028FCD1FDF74C
:102B9000D7FAFFF791FB00F012FB052108480170FE
:102BA000FEF7B0FC00F0B0FBFEF7BEF9F3E7000063
:102BB00030180020FCED00E0041000E0001000E000
:102BC000CC1A00201CB501210820FFF76BFD534CE7
:102BD0004FF480512000FFF766FE4FF48050ADF8AF
:102BE000000003208DF8020014208DF803006946D0
:102BF0002000FFF7C7FD01210420FFF745FD4FF43A
:102C0000C050ADF8000018208DF8030003208DF8A7
:102C1000020069464248FFF7B5FD5FF4802000F0EE
:102C200060FC40485FF4802101600821417101216E
:102C3000817100F019FC13BD80B50020FFF7B6FCD0
:102C400001215FF40000FFF73BFD01BD10B5374CDB
:102C5000A07A002803D005213348016002E0012159
:102C60003148016000F04CFC10BD80B54FF4A0600D
:102C7000FFF746FD14208DF8000002208DF80100BA
:102C800000208DF8020001208DF803006846FFF750
:102C90003CFD2A208DF8000001208DF801006846D7
:102CA000FFF733FD01BD10B504002000C0B20028BD
:102CB00005D04FF480511948FFF7F9FD04E04FF4B7
:102CC00080511648FFF7EFFD10BD70470120704797
:102CD00070B504000E0000253000C0B2854204D259
:102CE000605DFEF703FC6D1CF6E770BDF8B510489B
:102CF000046810480568104807683C19002C0BD080
:102D00000E4E0822B11C200000F01AF8042216F121
:102D10001201280000F014F8F1BD0000000C014081
:102D200000080140841A0020C41A0020301A002034
:102D3000E8F7FF1FECF7FF1FF0F7FF1F1800002058
:102D400030B4002400231D001400EDB2E4B2A5420B
:102D50001BD20400240F0A2C07D205002D0F30359A
:102D60001C00E4B201F8145006E005002D0F3735C1
:102D70001C00E4B201F81450000100241D00EDB263
:102D800001EB45056C705B1CDDE730BC704738B566
:102D900004000D002800C0B2402811DA2A00D2B287
:102DA00092B2C021200000F037FC2900C9B289B2DC
:102DB000012000F06FFD012000F0B9FC012000E0CF
:102DC000002032BD80B50849084808600220096823
:102DD0000872074807490160074A08490A60006805
:102DE0000068804701BD00BFB01A0020301A0020E3
:102DF000B41A002074000020A4000020B81A00209B
:102E000062F30F2262F31F42401810F0030308D050
:102E1000C91A1FD3DB0748BF00F8012D28BF20F8CF
:102E2000022D130030B414461546103928BF20E98E
:102E30003C00FAD8490728BF20E90C0048BF40F8F9
:102E4000042D890028BF20F8022D48BF00F8012D6D
:102E500030BC7047C91818BF00F8012DCB0728BF38
:102E600000F8012D704700000178427802708278E6
:102E70004270C2788270C17070472DE9FE4F824661
:102E80000C00150000262700BFB27F09F81DC0B254
:102E900080008DF80400210089B2082091FBF0FB2E
:102EA000CDF808A0A8465A4602994046FFF72AFBEB
:102EB000B846B94649469DF80400C9B2814263D27A
:102EC0004846C0B205EB800050F8040C009049461B
:102ED0004046C9B2C0B2814222D03800C0B20828F0
:102EE00042D14A46D2B2082092FBF0F100FB1122F7
:102EF000042A39D125489DF80010415C8DF8001056
:102F00009DF80110415C8DF801109DF80210415CA4
:102F10008DF802109DF80310405C8DF8030023E04B
:102F200017EB08086846FFF79FFF18489DF8001048
:102F3000415C8DF800109DF80110415C8DF8011086
:102F40009DF80210415C8DF802109DF80310405C62
:102F50008DF803009DF800100D4A3000C0B2105CDF
:102F600041408DF80010761C4946C9B23800C0B205
:102F7000091A55F82110009841404846C0B245F85A
:102F8000201019F1010995E7BDE8F78F9457000863
:102F9000CC5C000838B505000C0022004FF48071AD
:102FA0002800FFF76AFF31BD38B505000C000E227E
:102FB0002100280000F0FCFD31BD38B505000C00F3
:102FC0000E222100280000F07DFF31BD030000200B
:102FD00013F0030F09D0521E22BF13F8010B11F892
:102FE00001CBB0EB0C00F3D0704711F0030F14D1FC
:102FF000121F22BF53F8040B51F804CB6045F7D0E1
:10300000121D0AD200BA9CFA8CFCB0EB0C0038BF3F
:103010006FF0000088BF01207047521E22BF13F8D6
:10302000010B11F801CBB0EB0C00F6D0521C08BF1D
:1030300010467047C9B2830706D0521E22D310F83B
:10304000013B9942F7D11FE0083A13D302F1040281
:1030500041EA012141EA014150F8043B121F21BF1E
:103060004B40A3F1013C2CEA030C1CF0803FF3D051
:10307000C9B2001F0832521E24BF10F8013B91EA6A
:10308000030FF8D818BF0120401E704704480549B7
:103090000860054908600721044801607047000086
:1030A000E8180B0014E000E018E000E010E000E099
:1030B00080B5FFF70FFD00F05DF800F0C3F8FDF7F5
:1030C00015F8FEF718FC01BD1FB519208DF800009A
:1030D00000208DF8010000208DF8020001208DF8FD
:1030E00003006846FFF711FB01214FF40060FFF772
:1030F000D9FA01A800F066FF0020ADF806001948D3
:1031000001681948B1FBF0F0401EADF8040040F230
:10311000E730ADF80800154C01A9200000F000FFD1
:1031200001220121200000F068FF0121200000F0B1
:1031300055FF1FBD10B50D4C0121200000F069FFA7
:1031400000280DD00121200000F07AFF084991F8F5
:103150004100002804D091F84100401E81F8410050
:1031600010BD00001400002040420F00002C014060
:103170005C1900202A490878002802D00878401EEF
:1031800008704878002802D04878401E48702549C9
:103190004888002802D04888401E4880704780B583
:1031A0004FF40050ADF8000010208DF8030003200C
:1031B0008DF8020069461C48FFF7E4FA01BD38B5F6
:1031C000174C207800281AD06078002827D10120D9
:1031D0006070154D4FF400512800FFF756FB002892
:1031E00005D04FF400512800FFF761FB17E00820DD
:1031F00060704FF400512800FFF755FB0FE0607836
:1032000000280CD1084C4FF400512000FFF73DFB83
:10321000002804D14FF400512000FFF744FB31BDDA
:10322000CC1A0020AC1A00200010014004490968A3
:10323000081A002801D5012000E00020C0B2704724
:10324000041000E083494878002802D04878401EE6
:103250004870814991F84200002804D091F842005A
:10326000401E81F84200704738B57B4D95F8430009
:10327000002808D095F84200002804D1002085F8E5
:1032800043000020287000F004FF00283AD000F02E
:10329000EDFE0400012085F84300192085F8420066
:1032A0002878002802D022281ED00EE02878284452
:1032B0004470287828444078AA2805D1AA2085F8A7
:1032C00041002878401C28701CE02878284444706D
:1032D00095F84110287828444078414085F84110FD
:1032E0002878401C28700DE028782844447095F810
:1032F0004100297829444978884203D10020287068
:10330000012000E0002032BD2DE9F04F8DB0FFF725
:10331000ABFF002876D0504CA078012802D00228BC
:103320005DD094E004200990E01C08904B4D15F10D
:103330001006099A08993000FFF7E4F80420079076
:10334000E01D069015F11406079A06993000FFF764
:10335000D9F8042614F10B00059015F11807320076
:1033600005993800FFF7CEF8042714F10F000490F8
:1033700015F11C083A0004994046FFF7C3F85FF0C6
:10338000040814F11300039015F120094246039933
:103390004846FFF7B7F85FF0040914F117000290F0
:1033A00015F1240A4A4602995046FFF7ABF85FF040
:1033B000040A14F11B00019015F1280B52460199E3
:1033C0005846FFF79FF8E07F85F82C0094F820001E
:1033D00085F82D0094F8210085F82E0037E00425AB
:1033E000661D6F462A0031003800FFF78BF8009801
:1033F000FEF74CF800906B462279E1780120FEF749
:1034000021F924E0164890F8431003291FD1002128
:1034100080F843100AA94430FEF7D1FE9DF8280039
:10342000012814D101208DF8280000208DF82900F2
:103430000C48032180F888100AA98930FEF7DFFEC6
:103440006B46012201219DF82A00FEF7FBF80DB022
:10345000BDE8F08F901A002018190020E019002014
:10346000901800206417002070B400241F4B1A002D
:10347000817900292DD01D4D2C6801688C432C606A
:103480001B4D2C6801688C432C6001798A181468E4
:1034900001680C431460174C256801688D43256052
:1034A000154D2E6801688E432E604179102908D190
:1034B000236801680B4323602B6801680B432B6072
:1034C0000DE04179CB181A00136801680B431360B3
:1034D00005E001798A18136801688B43136070BC9A
:1034E0007047064908607047000000000004014072
:1034F00004040140080401400C040140140401408C
:1035000080B53E49086850F0010008603C4A1368E5
:103510003C48034013600B683B4803400B6008685D
:1035200030F480200860106830F4FE0010605FF412
:103530001F013648016000F005F85FF00061344873
:10354000016001BD80B500F001F801BD82B000202E
:103550000190002000902949086850F480300860EC
:10356000086810F4003000900198401C0190009809
:10357000002803D10198B0F5A06FF1D1086880034D
:1035800002D50120009001E0002000900098012861
:1035900031D12048026852F010020260026892089D
:1035A00092000260026852F002020260144802684F
:1035B000026002680260026852F48062026002687F
:1035C00032F47C120260026852F4E81202600A6867
:1035D00052F080720A600A689201FCD5016889087D
:1035E00089000160016851F002010160016811F079
:1035F0000C010829FAD102B0704700000010024007
:10360000041002400000FFF8FFFFF6FE0810024021
:1036100008ED00E000200240F0B403001600B6B24E
:10362000761C7610080080B2164F17EB400730006A
:1036300000280ED093F800C064465B1C93F800C0CD
:1036400054EA0C2C65463D80BF1CBF1C5B1C401E11
:10365000EEE7F0BC704770B41400A4B2641C6410B0
:103660000B009BB2074D15EB43052300002B06D042
:103670002E6806802D1D401C401C5B1EF6E770BCAA
:1036800070470000006000404FF6F8720240DFF81B
:1036900098120A60704710B4DFF890320200D2B27C
:1036A00053F8224048F68F1214400C43A4B2020093
:1036B000D2B243F8224010BC704710B4DFF86C322D
:1036C0000200D2B253F8224048F6BF722240CC0624
:1036D00001D592F010028C0601D592F0200242F43E
:1036E000004252F0800292B20400E4B243F8242077
:1036F00010BC704710B4DFF834320200D2B253F875
:1037000022404BF68F722240CC0401D592F48052B5
:103710008C0401D592F4005242F4004252F080022F
:1037200092B20400E4B243F8242010BC7047DFF8E2
:10373000FC210100C9B252F8213048F6BF7119408E
:1037400091F0100191F0200141F4004151F080010D
:1037500089B20300DBB242F823107047DFF8CC21B6
:103760000100C9B252F821304BF68F71194091F423
:10377000805191F4005141F4004151F0800189B22F
:103780000300DBB242F823107047DFF8A0210100EC
:10379000C9B252F8213048F68F610B4043F4004320
:1037A00053F080039BB20100C9B242F82130704748
:1037B000DFF878210100C9B252F8211049040ED572
:1037C0000100C9B252F8213048F68F710B4043F422
:1037D000404353F080030100C9B242F821307047E2
:1037E000DFF848210100C9B252F8211049060ED570
:1037F0000100C9B252F8213048F68F710B4043F4F2
:10380000004353F0C0030100C9B242F821307047B1
:10381000DFF8142113689BB20200D2B213EBC2038B
:10382000DFF80C2112EB43020B009BB25B089BB24A
:103830005B0013607047DFF8F02013689BB2020052
:10384000D2B213EBC203DFF8EC2012EB43020B0001
:103850009BB25B089BB25B0013607047DFF8C81037
:10386000096889B2C0B211EBC001DFF8C40010EBE7
:103870004100006880B27047DFF8AC10096889B277
:10388000C0B211EBC001DFF8AC0010EB41000068E2
:1038900080B27047DFF8902013689BB20200D2B26A
:1038A00013EBC203DFF8902012EB43020B009BB234
:1038B0001360704710B4DFF8702013689BB20200E9
:1038C000D2B213EBC203DFF8742012EB43020B00F9
:1038D0009BB23F2B0DDB0C00A4B264090B0013F06C
:1038E0001F0F00D1641EA4B2A40254F4004414605B
:1038F00008E00C00A4B26408CB0700D5641CA4B295
:10390000A402146010BC7047DFF81C10096889B26B
:10391000C0B211EBC001DFF8240010EB41000068D9
:103920008005800D70470000505C0040005C004046
:103930000060004008600040046000400C600040EF
:1039400003001900180080B2000A0A00D2B250EA3F
:10395000022080B27047000081B002788DF800200C
:103960006A4603795370037A9370037BD3700B001C
:10397000DBB213F00303D35C03700B00DBB25B1C00
:1039800013F00303D35C03710B00DBB29B1C13F039
:103990000303D35C03720B00DBB2DB1C13F00303E5
:1039A000D25C027301B070472DE9FF4180460C00E4
:1039B00000273800C0B210280BDA7C483900C9B2A1
:1039C00018F80110405C6A463900C9B250547F1C97
:1039D000EFE701210DF10100FFF7BEFF02210DF11C
:1039E0000200FFF7B9FF03210DF10300FFF7B4FF59
:1039F00000263000C0B2042880F292806F4630006A
:103A0000C0B217F820106A463000C0B202EB800046
:103A10004078414068463200D2B200EB82008078A4
:103A200041406A463000C0B202EB8000C07841409D
:103A30000D001B223000C0B217F820106B4630007A
:103A4000C0B203EB800040784140C9B2022000F0D0
:103A5000C1FB3100C9B217F821104840684031005D
:103A6000C9B208F821001B2269463000C0B201EB40
:103A70008000417868463300DBB200EB8300807839
:103A80004140C9B2022000F0A5FB6A463100C9B22C
:103A900002EB81014978484068403100C9B208EB27
:103AA000810148701B2269463000C0B201EB8000E2
:103AB00081786B463000C0B203EB8000C078414093
:103AC000C9B2022000F086FB6A463100C9B202EB9F
:103AD00081018978484068403100C9B208EB810112
:103AE00088701B2269463000C0B201EB8000C178AB
:103AF0003000C0B217F820004140C9B2022000F0E7
:103B000069FB6A463100C9B202EB8101C9784840BD
:103B100068403100C9B208EB8101C870761C68E7C3
:103B200000210800C0B210280DDA0800C0B218F851
:103B300000200800C0B2205C42400800C0B208F873
:103B40000020491CEDE7BDE8FF8170B504000D00C1
:103B500000263000C0B2102809DA14483100C9B27A
:103B6000615C415C3000C0B22154761CF1E7012158
:103B7000601CFFF7F1FE0221A01CFFF7EDFE032100
:103B8000E01CFFF7E9FE00210800C0B210280BDAA4
:103B90000800C0B2225C0800C0B2285C42400800A5
:103BA000C0B22254491CEFE770BD000094570008D2
:103BB000F8B504000D00160000210800C0B210285E
:103BC0000BDA0800C0B2225C0800C0B2285C424098
:103BD0000800C0B22254491CEFE701273000C0B2F0
:103BE00002280ADB3800C0B2000105EB000120000A
:103BF000FFF7DAFE7F1C761EF0E73800C0B2000146
:103C000005EB00012000FFF7A0FFF1BD81B00278B5
:103C10008DF8002002798DF80120027A8DF80220BB
:103C20006A46037BD3700B00DBB2D3F1040313F0BD
:103C30000303D35C03700B00DBB2D3F1050313F075
:103C40000303D35C03710B00DBB2D3F1060313F063
:103C50000303D35C03720B00DBB2D3F1070313F051
:103C60000303D25C027301B070472DE9F84F86B0B0
:103C700083460C0000210800C0B210280DDA0800AD
:103C8000C0B21BF800200800C0B2205C424002AB6A
:103C90000800C0B21A54491CEDE700273800C0B232
:103CA000042880F2B88002A93800C0B201EB80007D
:103CB000C17802AA3800C0B202EB8000807841408F
:103CC0008DF805100DF1080802A93800C0B201EB0B
:103CD000800041783800C0B218F8200041408DF8CB
:103CE00004109DF805009DF8049099EA00091B2234
:103CF0004946C9B2092000F06DFA82461B2202A88B
:103D00003900C9B200EB810081783800C0B218F8E0
:103D100020004140C9B2042000F05CFA90EA0A0099
:103D200006001B2202A93800C0B201EB8000C17856
:103D300002A83B00DBB200EB830040784140C9B2EF
:103D4000042000F047FA90EA0A0005001B22380020
:103D5000C0B218F8201002AB3800C0B203EB8000EC
:103D6000C0784140C9B2022000F034FA02AA3900FA
:103D7000C9B202EB8101C978694048403900C9B233
:103D80000BEB8101C87002A93800C0B201EB8000C2
:103D90008078704000901B229DF80510022000F0F2
:103DA00019FA009948403900C9B20BEB81018870BB
:103DB0001B2202A93800C0B201EB8000817802AB5F
:103DC0003800C0B203EB800040784140C9B2022005
:103DD00000F000FA02A93A00D2B201EB8201497860
:103DE000694048403900C9B20BEB81014870380086
:103DF000C0B218F8208096EA08081B229DF804102B
:103E0000022000F0E7F990EA08083800C0B20BF889
:103E100020807F1C42E701211BF10100FFF7F6FE25
:103E200002211BF10200FFF7F1FE03211BF1030049
:103E3000FFF7ECFE00200100C9B210290BDA20497F
:103E40000200D2B21BF802208A5C0100C9B20BF852
:103E50000120401CEFE707B0BDE8F08F70B504000B
:103E60000D0000263000C0B210280BDA3000C0B2BE
:103E7000215C3000C0B2285C41403000C0B2215407
:103E8000761CEFE70121601CFFF7C0FE0221A01C99
:103E9000FFF7BCFE0321E01CFFF7B8FE0020010085
:103EA000C9B2102909DA06490200D2B2A25C8A5CC2
:103EB0000100C9B26254401CF1E770BD000000006F
:103EC00094560008F8B504000D00160037003800BD
:103ED000C0B2000105EB00012000FFF7BFFF30007A
:103EE000C0B202280ADB7F1E3800C0B2000105EB19
:103EF00000012000FFF7B9FE761EF0E70021080060
:103F0000C0B210280BDA0800C0B2225C0800C0B2B0
:103F1000285C42400800C0B22254491CEFE7F1BDC2
:103F200010B400220488DFF8883098420FD0DFF800
:103F3000202190420BD0B0F1804F08D01D4A904212
:103F400005D01D4A904202D01C4A904205D14FF63E
:103F50008F72144022004C881443194A904209D0B1
:103F6000DFF8E820904205D04FF6FF4214402200CF
:103F7000CC88144304808A8882850A880285984206
:103F80000FD0DFF8CC2090420BD0DFF8C820904251
:103F900007D0DFF8C420904203D0DFF8C020904261
:103FA00001D10A7A02860122828210BC7047000089
:103FB000002C01400004004000080040000C0040BC
:103FC000001000404FF6FF71818000210180002128
:103FD000C180002141800021017270470A00D2B2E5
:103FE000002A04D0028852F00102028004E0038813
:103FF0004FF6FE721340038070471300DBB2002BB4
:1040000003D083890B43838102E083898B438381BF
:104010007047F0B40200002300200027148A0C40EF
:1040200095890D402600B6B2002E05D0280080B23A
:10403000002801D0012000E00020C0B2F0BC704791
:104040000A0092B2D243028270470000001400407E
:10405000003401400040014000440140004801405C
:104060005A49088850F00400088070475648B0F854
:104070000214B0F800340A0092B29342F9D0B0F8BA
:104080000224521CD205D20DA0F8022492B2805C08
:1040900070474D49B1F80204B1F8001480B2814272
:1040A00001D0012000E00020C0B270472DE9F84F98
:1040B000474E40F2255739003000FEF7C3FC002878
:1040C00010D03000FEF7BAFC83463F48B0F8001429
:1040D000491CC905C90D0D00A0F80054290089B27A
:1040E00000F801B040F2277949463000FEF7AAFCFB
:1040F000002832D0DFF8D080B8F804040500290089
:10410000B8F8060489B2814211D0B8F80604401C00
:10411000C005C00D0400A8F80644200080B2404449
:1041200090F8001289B23000FEF784FC15E040F2EE
:10413000266A51463000FEF7BAFC01225146300093
:10414000FEF73FFC002249463000FEF73AFC98F8A3
:10415000090450F0020088F8090440F2266841463C
:104160003000FEF76FFC002820D041463000FEF7FB
:104170009EFC154890F80914890717D590F8091482
:1041800011F0FD0180F8091490F8091451F00401B0
:1041900080F80914FFF764FF002241463000FEF763
:1041A00010FC012239003000FEF70BFC4FF458716F
:1041B0003000FEF747FC002804D04FF4587130005F
:1041C000FEF775FCBDE8F18F4C0900200C4400405F
:1041D0000044004070B40300002000242600F6B222
:1041E000082E0FDACE0700D5584013F080063500B0
:1041F0005B002E00F6B2002E00D05340C9B2490831
:10420000641CEBE7C0B270BC7047000010B504003E
:10421000200080B2002806D10120DFF8C01A09680A
:104220000882002008E0DFF8B80A006800688047CC
:10423000DFF8A80A00680A3010BD80B5DFF89C1AC4
:10424000DFF8A00A40780A68D278904212D3086852
:10425000807800280ED10868808800280AD1086874
:10426000C07809688872DFF8780A0068406880477B
:10427000002000E0022002BD10B50400200080B242
:10428000002806D10120DFF8541A096808820020AE
:1042900008E0DFF84C0A006880688047DFF83C0AD5
:1042A00000680C3010BD38B5DFF8304A2068C1789E
:1042B00020684079DFF8302A12689269904705003B
:1042C0002068807A002820D02800C0B2002807D1BA
:1042D00020680079002803D120688078002801D068
:1042E000022013E02800C0B200280ED1DFF8F00948
:1042F0000068C0688047206841792068C1722068E2
:10430000C07821680873002000E0022032BD38B573
:104310000400200080B2002806D10220DFF8BC197A
:104320000968088200205EE0DFF8C059002028807C
:10433000DFF8A8090168097811F07F0F18D100682B
:10434000407A810604D5297851F00201297003E0F2
:10435000297811F0FD012970410604D5297851F022
:104360000101297039E0297811F0FE01297034E04B
:104370000168097811F07F01012901D1280032E09C
:104380000168097811F07F01022924D10068407981
:1043900010F00F0102060ED5DFF854390A00D2B230
:1043A00053F8222012F03002102A16D12A7852F047
:1043B00001022A7011E0DFF838390A00D2B253F84E
:1043C000222012F44052B2F5805F06D12A7852F0D2
:1043D00001022A7001E0002005E0DFF8040900680E
:1043E00000698047280032BD2DE9F047DFF8EC185E
:1043F0000868047814F07F04002C07D10868407A1C
:1044000010F0DF0009684872002086E0022C40F0BE
:10441000838008684088002803D108680079002854
:1044200001D0022079E0DFF8BC78086890F80580B8
:1044300038F080094D4608684079000606D5DFF857
:10444000B00850F8256016F0300605E0DFF8A00847
:1044500050F8256016F440563878814505D2002E74
:1044600003D00868807A002801D1022055E05FEA75
:10447000086011D5DFF8780850F8250010F03000FA
:10448000102842D12800C0B2FFF7AAF93021280035
:10449000C0B2FFF712F938E0DFF854A85AF8250047
:1044A00010F44050B0F5805F2FD1002D19D1DFF806
:1044B000440890F82C1089B22800C0B2FFF7FAF92E
:1044C0005AF825004BF68F71014091F4805191F418
:1044D000005141F4004151F0800189B24AF82510A1
:1044E00013E02800C0B2FFF763F95AF825004BF635
:1044F0008F71014091F4805191F4005141F40041D9
:1045000051F0800189B24AF82510DFF8D40700681D
:1045100040698047002000E00220BDE8F087F8B540
:10452000DFF8B8170868457935F080063700086865
:104530004079000606D5DFF8B80750F8274014F098
:10454000300405E0DFF8A80750F8274014F4405481
:10455000DFF890070078874209D208684088002871
:1045600005D1002C03D00868807A002801D10220F0
:1045700028E0280610D5DFF8782752F8270048F6FB
:10458000BF71014091F0100141F4004151F08001F0
:1045900089B242F827100FE0DFF8542752F82700BD
:1045A0004BF68F71014091F4805141F4004151F07C
:1045B000800189B242F82710DFF82407006880697B
:1045C00080470020F2BD80B5DFF810170868407AF8
:1045D00050F0200009684872DFF804070068C069DD
:1045E0008047002002BD10B40200DFF8F0462068CA
:1045F000438A100080B2002805D18888C01A246838
:104600002082002001E00868184410BC70472DE9A2
:10461000F041DFF8C856286810F110063488B068F9
:1046200000281AD0002C18D0B788BC4200D227002E
:10463000380080B2B168884780463088C01B30801F
:104640007088381870800020FFF716F93A0092B28F
:10465000010089B24046FEF7FEFF308800280CD0EA
:104660004FF44051DFF89006018000210020FFF751
:1046700011F93021DFF8840601803188B088814249
:1046800003D30320296808721AE03088002803D079
:1046900005202968087213E03088002810D1062010
:1046A000296808720020DFF858160A6892B2DFF80D
:1046B000541611EB420108603021DFF840060180FA
:1046C000BDE8F0812DE9F843DFF81076386810F185
:1046D0001008B8F800403868007A002C22D104286D
:1046E00020D1DFF824160A78012A14D10022DFF83D
:1046F0001036D3F800C01FFA8CFCDFF8083613EB35
:104700004C031A603023DFF8F42513805FF00409AE
:1047100000220A7005E05FF007091022DFF8DC15BF
:104720000A8034E0B8F804100E00A64202D35FF00D
:10473000040901E05FF00209B44200D22600300013
:1047400080B2D8F80810884705000020FFF786F8E7
:10475000320092B2010089B22800FEF75DFF3100FD
:1047600089B20020FFF796F8B8F80000801BA8F87F
:104770000000B8F802003018A8F802003021DFF875
:104780007C0501804FF44051DFF86C0501803868EA
:1047900080F80890BDE8F18370B50226DFF83C454B
:1047A000206845782068007810F07F0F42D1092DED
:1047B00003D1FFF742FD06005CE0052D14D120680F
:1047C000C07880280BDA20688078002807D120681C
:1047D0008088002803D12068807A002801D0082032
:1047E0006FE00020060045E0032D0ED12068C07860
:1047F000012807D120688088002803D1FFF7E3FE55
:10480000060037E00220060034E0012D32D1206896
:10481000C07801280BD120688088002807D1206843
:10482000407A800603D5FFF7DFFD060022E0022074
:1048300006001FE02068007810F07F00012805D1F5
:104840000B2D17D1FFF72FFD060013E0206800782D
:1048500010F07F0002280BD1012D03D1FFF7C4FD1A
:10486000060007E0032D05D1FFF759FE060001E021
:10487000022006003000C0B200280DD02800C0B2CF
:10488000DFF8641409684969884706003000C0B23F
:10489000032801D1092014E03000C0B2002801D063
:1048A00008200EE006200021DFF8542413689BB294
:1048B000DFF8502412EB430211603022DFF83C1481
:1048C0000A802168087270BD2DE9F84FDFF80C747A
:1048D000386846785FF000085FF00009062E26D1A0
:1048E0003868007810F07F0F40F0B1803868807829
:1048F0000100C9B2012905D1DFF8EC130968C969C3
:104900008846A4E00100C9B2022905D1DFF8D81316
:104910000968096A88469AE00100C9B2032940F093
:104920009680DFF8C4130968496A88468FE0002E34
:1049300060D13868408800285CD13868C088022877
:1049400058D138680079002854D13868007810F0C0
:104950007F0F07D138688088002803D1DFF8AC03C7
:10496000804674E03868007810F07F00012811D18B
:10497000002138684079DFF8702312689269904707
:10498000002864D13868807A002860D0DFF87C0382
:1049900080465CE03868007810F07F00022856D12D
:1049A0003868407910F00F0083463868407910F07D
:1049B0007000040038684079000607D5DFF830033E
:1049C00050F82B0010F03000050006E0DFF820035F
:1049D00050F82B0010F440500500DFF80803007871
:1049E000834534D2002C32D1002D30D0DFF81C03A7
:1049F00080462CE0082E07D13868007810F07F0F31
:104A000025D1C348804622E00A2E20D1386800789C
:104A100010F07F0001281AD13868807A002816D05B
:104A200038684088002812D13868007900280ED1F3
:104A30003868C08801280AD1002138684079AA4A1C
:104A4000126892699047002801D1B24880464046DA
:104A500000280AD03868A0F812903868C0F818808A
:104A60000020C0475FF0000A0EE0386840789E4999
:104A700009680969884782465046C0B2032803D1B5
:104A800009203968087256E03868018A4FF6FF70CD
:104A9000814203D10920396808724CE05046C0B207
:104AA000022803D03868008A002803D1082039681A
:104AB000087240E038680078000635D53868C0884C
:104AC000009000983968098A884203D200993868B2
:104AD000018220E03868008A3968C98888421AD281
:104AE00081493868008A0A6892F82C2092B2904274
:104AF00003D20020844908700DE03868008A0968F4
:104B000091F82C2090FBF2F102FB1100002802D159
:104B100001217D4801707448006890F82C003968C4
:104B20008882FFF7CFFD06E00320396808724FF452
:104B3000405171480180BDE8F18F70B50124704883
:104B4000016889B2744810EB410000884100734845
:104B500001EB0006614D2868007A092822D03178DF
:104B600028680170721C107829684870511C200058
:104B700080B201EB40063088FEF7E2FEB11C2A68E5
:104B80005080200080B201EB40063088FEF7D8FE4E
:104B9000B11C2A689080200080B201EB4006318869
:104BA0002868C1800121286801722868C08800280F
:104BB00002D1FFF7F1FD01E0FFF786FE00F04EF8AD
:104BC00070BD70B5454C2068057A022D01D0042DCA
:104BD00004D1FFF777FD2068067A19E0062D16D17B
:104BE0002068407805280CD12068007810F07F0FED
:104BF00007D12068C07800F04EF839480068006A94
:104C000080473948006880688047082600E0082609
:104C10002068067200F022F870BD70B52F4C206835
:104C2000057A022D01D0042D01D1082611E0032DB3
:104C300001D0052D04D1FFF7EAFC2068067A08E0D0
:104C4000072D05D128480068C0688047082600E085
:104C500008262068067200F001F870BD80B525486E
:104C600090F82C1089B20020FEF724FE1B48016842
:104C7000097A082906D14FF480521F490A80102270
:104C80001E490A800068007A092801D1012000E04D
:104C90000020C0B202BD30B412490A78002393420A
:104CA00014D2134C1900C9B254F8215048F68F7130
:104CB0000D401900C9B20D4345F4004555F080057B
:104CC0001900C9B244F821505B1CE8E70400E4B2C3
:104CD00054F0800412490C6030BC7047B01A0020B8
:104CE000B81A0020F8000020B41A0020CE1A0020C4
:104CF000005C004074000020D21A0020D41A00206A
:104D0000505C004004600040DA1A00200F430008A5
:104D10000D42000879420008086000400060004031
:104D20004C5C00407047000080B5FDF7DFFF0020BD
:104D300093490968887200F037F900F03DFAFDF7F1
:104D4000C4FF00218F48016001BD80B58C4800225E
:104D500001688A728C49CA7901684A720021006828
:104D6000C1720020FEF790FC4FF400710020FEF7A6
:104D700092FC10210020FEF7A0FC40210020FEF74D
:104D80005AFD80210020FEF743FD0020FEF7FDFCC8
:104D90007E4890F82C1089B20020FEF78BFD002091
:104DA000FEF7DCFC00210120FEF775FCC02101208C
:104DB000FEF72EFD20210120FEF77FFC00210120BF
:104DC000FEF798FC4FF4C0610220FEF764FC4FF43C
:104DD00080710220FEF71CFD00210220FEF78AFCF4
:104DE00020210220FEF769FC00210320FEF753FC7E
:104DF0004FF488710320FEF71EFD40210320FEF7CB
:104E000059FD4FF440510320FEF774FC00210320AC
:104E1000FEF753FC0020FFF73EFF012159480160D7
:104E200001BD5B49887A002802D0052255480260FE
:104E30007047042153480160704710B5554C2078E5
:104E4000202803D1FDF742FF0020207010BD7047DD
:104E500038B5040000252000C0B221280AD14848F6
:104E60000068007810F07F00212814D10FF2D900DB
:104E7000050010E02000C0B220280CD14048006896
:104E8000007810F07F00212802D10FF2D900050030
:104E90002021404801702800002801D1022008E0AC
:104EA0003749086885610020096848820020A847C2
:104EB000002032BD010032480068007810F07F0009
:104EC00021280BD10800C0B2022801D1002006E041
:104ED0000800C0B2222801D1002000E00220704763
:104EE00010B504002C49200080B2FFF77CFB10BDF8
:104EF00010B504002949200080B2FFF774FB10BDF3
:104F000038B504001E480068C5782800C0B20528DE
:104F100001DB002008E022492800C0B201EBC001FB
:104F2000200080B2FFF75FFB32BD02000800C0B274
:104F3000002801D0022006E01000C0B2022801DBE8
:104F4000022000E0002070470100080080B2002825
:104F500005D108200A4A12681082002000E011489A
:104F6000704700000100080080B2002805D1082029
:104F7000034A12681082002000E00A4870470000CF
:104F8000B01A0020C41A0020E45800087400002061
:104F9000301A0020DD1A0020C8000020D0000020B8
:104FA000D80000206C00002010B50120FDF77BFE2A
:104FB000012178480A0092B20260774A00231380E8
:104FC000138803600024754B1C604FF4E05313807A
:104FD00012880260002010BDF8B5002000210022D8
:104FE00000926C4A16680024082C08D26C4850F8CD
:104FF00024309BB26B4840F82430641CF4E756F42C
:105000008066300080B2106056F00106300080B239
:1050100010604FF6FE700640300080B210605F48AE
:1050200003685B05FBD54FF6FF3303600023082BB5
:1050300008D25C4C54F82350ADB2594C44F823507C
:105040005B1CF4E756F008063400A4B2146015683F
:1050500055F004052C00A4B21460534C2768009747
:10506000D4F800C05FEA9C0C5FEA8C0C5CF0010C89
:10507000C4F800C04D4FD7F800E05EF0040EC7F84A
:1050800000E0D0F800E05FEACE4E05D430BF3868CB
:1050900030F00400386010E04EF6FF7101601168D6
:1050A0004FF6F77001400D00280080B210600098A4
:1050B0002060386830F004003860F1BD38B5354CF8
:1050C00025684FF6FB700540280080B22060FDF790
:1050D000BDFD4FF43F40206031BD70B5040020009D
:1050E000C0B2072801D032480470314E3078002811
:1050F00008D002281AD011D3042825D01BD30528A4
:105100002FD043E02B480068002804D1FFF7D6FFDA
:105110000620307001E00520307039E0FFF7CEFF47
:105120000420307001212348016031E002207070BA
:10513000032030702CE07078401E7070707800286A
:1051400001D10420307023E01248016851F01001B1
:105150000D00290089B20160052030700A207070AE
:1051600016E07078401E7070707800280DD10949E3
:105170000A684FF6EF7002401500280080B2086000
:105180000620307000210B48016001E006203070DD
:1051900070BD0000405C0040D01A0020445C00401C
:1051A000005C0040101A00200070004010ED00E08C
:1051B000D81A0020C81A00200021054801600549BE
:1051C0004FF43F4008800988034801600020704781
:1051D000445C0040D01A0020405C0040F8B5070055
:1051E0000C00002517F07F00FEF78EFB060017F07D
:1051F0007F00FEF741FB320092B2010089B220002D
:10520000FEF729FA3000F2BD2DE9FC410020ADF88F
:1052100000006F4800686F490880000440F1D680A4
:105220006D4C088810F00F0020702078002840F0A6
:105230009C80DFF8A8816A4C2068A8F80000694DBE
:10524000B8F8000010F030002880B8F8000010F422
:105250004050A8F800004BF6BF76206880B230407E
:1052600090F4005090F0200048F2800780B238435C
:1052700020600888C00624D4216889B248F60F70DF
:1052800001402160FFF79DFC206880B20640B8F81D
:105290000000C00401D596F48056B8F800008004E0
:1052A00001D596F400562888C00601D596F0100660
:1052B0002888800601D596F02006B6B23E432660C7
:1052C00084E02068ADF80000BDF80000000523D59B
:1052D000216840F68F7001402160FFF72EFC2068A6
:1052E00080B20640B8F80000C00401D596F480569C
:1052F000B8F80000800401D596F400562888C0064E
:1053000001D596F010062888800601D596F0200673
:10531000B6B23E43266059E0BDF8000000047FF5B8
:1053200078AF216840F68F7001402160FFF775FC6F
:10533000206880B20640B8F80000C00401D596F499
:105340008056B8F80000800401D596F400562888ED
:10535000C00601D596F010062888800601D596F083
:105360002006B6B23E43266030E01D4D207855F849
:105370002000ADF80000BDF8000000040FD5207833
:1053800055F8201040F68F700140207845F8201025
:105390001548217800EB810050F8040C8047BDF8D7
:1053A000000000067FF535AF207855F8201089B24F
:1053B00048F60F700140207845F820100B482178FE
:1053C00000EB810050F8040C804722E7BDE8F38130
:1053D000445C0040D61A0020DB1A0020D21A0020BC
:1053E000005C0040D41A002050000020340000204F
:1053F000F8B588B000274D4C4D4D286820804D4EA3
:10540000218830880140880506D54FF6FF50286076
:1054100049490878401C08702188308801400804F8
:1054200001D5FFF7F1FE218830880140480505D5F8
:105430004FF6FF3028604148406880472188308817
:105440000140880402D54DF6FF702860218830881D
:105450000140C80405D54EF6FF7028600020FFF714
:105460003CFE21883088014008050CD5344800787E
:10547000002805D033480068052801D1FFF7ACFDAE
:105480004FF2FF702860218830880140C8054AD556
:105490004FF6FF6028602C48006800043DD52B487B
:1054A0000168491C01600168042939D328490A6848
:1054B000120735D4274A0B689BB213600023082BD0
:1054C00008D2254C54F82340A4B26E4646F8234037
:1054D0005B1CF4E7146854F0010414601468A4B26F
:1054E0000C601468640864001460126892B20A6068
:1054F00029684905FCD54FF6FF3129600027082FA0
:1055000008D2694651F8271089B2134A42F8271089
:105510007F1CF4E70021016002E000200B490860D5
:105520000720FFF7DAFD09B0F0BD00BFD61A002052
:10553000445C0040D01A0020DC1A002074000020D7
:10554000FA000020C41A0020485C0040BC1A002069
:10555000405C0040C01A0020005C00404C490888B4
:1055600050F00400088070472DE9F84F464E40F295
:10557000255739003000FDF765FA002810D03000BB
:10558000FDF75CFA83464148B0F80014491CC90590
:10559000C90D0D00A0F80054290089B200F801B02F
:1055A00040F2277949463000FDF74CFA002832D006
:1055B000DFF8D880B8F8040405002900B8F806041C
:1055C00089B2814211D0B8F80604401CC005C00D54
:1055D0000400A8F80644200080B2404490F800126D
:1055E00089B23000FDF726FA15E040F2266A5146EE
:1055F0003000FDF75CFA012251463000FDF7E1F979
:10560000002249463000FDF7DCF998F8090450F013
:10561000020088F8090440F2266841463000FDF790
:1056200011FA002820D041463000FDF740FA174813
:1056300090F80914890717D590F8091411F0FD01A5
:1056400080F8091490F8091451F0040180F8091445
:10565000FFF784FF002241463000FDF7B2F9012236
:1056600039003000FDF7ADF94FF458713000FDF707
:10567000E9F9002804D04FF458713000FDF717FA0B
:10568000BDE8F18F0000000000480040580D0020E8
:105690000C48004052096AD53036A538BF40A39E59
:1056A00081F3D7FB7CE339829B2FFF87348E434401
:1056B000C4DEE9CB547B9432A6C2233DEE4C950B5D
:1056C00042FAC34E082EA16628D924B2765BA249BD
:1056D0006D8BD12572F8F66486689816D4A45CCCDC
:1056E0005D65B6926C704850FDEDB9DA5E154657AF
:1056F000A78D9D8490D8AB008CBCD30AF7E45805E5
:10570000B8B34506D02C1E8FCA3F0F02C1AFBD03F0
:1057100001138A6B3A9111414F67DCEA97F2CFCEC1
:10572000F0B4E67396AC7422E7AD3585E2F937E85C
:105730001C75DF6E47F11A711D29C5896FB7620E9E
:10574000AA18BE1BFC563E4BC6D279209ADBC0FE7F
:1057500078CD5AF41FDDA8338807C731B11210592C
:105760002780EC5F60517FA919B54A0D2DE57A9F1E
:1057700093C99CEFA0E03B4DAE2AF5B0C8EBBB3C13
:1057800083539961172B047EBA77D626E169146397
:1057900055210C7D637C777BF26B6FC53001672BE5
:1057A000FED7AB76CA82C97DFA5947F0ADD4A2AF15
:1057B0009CA472C0B7FD9326363FF7CC34A5E5F123
:1057C00071D8311504C723C31896059A071280E2D1
:1057D000EB27B27509832C1A1B6E5AA0523BD6B325
:1057E00029E32F8453D100ED20FCB15B6ACBBE3995
:1057F0004A4C58CFD0EFAAFB434D338545F9027F81
:10580000503C9FA851A3408F929D38F5BCB6DA2139
:1058100010FFF3D2CD0C13EC5F974417C4A77E3D65
:10582000645D197360814FDC222A908846EEB814BB
:10583000DE5E0BDBE0323A0A4906245CC2D3AC627E
:105840009195E479E7C8376D8DD54EA96C56F4EA89
:10585000657AAE08BA78252E1CA6B4C6E8DD741F9A
:105860004BBD8B8A703EB5664803F60E613557B95D
:1058700086C11D9EE1F8981169D98E949B1E87E917
:10588000CE5528DF8CA1890DBFE6426841992D0FC6
:10589000B054BB1600002115110E0D0C0B0B0A0A9B
:1058A0000909090909080808080808080707070777
:1058B00007070707070707070700000030313233E3
:1058C0003435363738396162636465666768696A9A
:1058D0006B6C6D6E6F707172737475767778797AA0
:1058E0000000000009024300020100C03209040068
:1058F000000102020100052400100105240100013D
:10590000042402020524060001070582030800FFA3
:1059100009040100020A000000070503024000001C
:10592000070581024000000030B4002412E050F866
:10593000043BDA0744BF4B445B1E091F042943F8AC
:10594000044BFAD21A468D0744BF1C80921CCB0729
:1059500048BF147050F8041B0029E8D130BC7047D0
:105960003203530054004D00330032002000560033
:10597000690072007400750061006C002000430033
:105980004F004D00200050006F0072007400200096
:105990002000000041542B4D49504F50454E3D31A1
:1059A0002C343030302C2231302E31312E32343400
:1059B0002E3736222C343030302C312C302C310D17
:1059C0000000000010B5034A7A440832024C7C44BF
:1059D000A41D03E090000000AC00000004E011688A
:1059E000101D114488470246A242F8D110BD0000A4
:1059F0002603530054004D006900630072006F00DD
:105A000065006C0065006300740072006F006E003A
:105A10006900630073000000704738B5074C21002F
:105A20000320FFF7DBFB05002900C9B22000FDF7CA
:105A30004FF90320FDF792FE31BD0000A0190020B0
:105A400041542B4D495043414C4C3D312C22616C0B
:105A500061726D2E76656C636F6D2E6279222C31CA
:105A60002C310D00C5FEFFFFE4190000FC000020F2
:105A70000000000013CAFFFF0C0400003E010000FC
:105A8000000000203357014442703435445160080F
:105A900031121993314159265358979323846264E4
:105AA0003383279500F00DF8002801D0FFF78AFF17
:105AB000AFF300800020AFF30080FDF756F800F050
:105AC00002F80120704700F001B800000746384690
:105AD00000F002F8FBE7000080B5AFF30080024A57
