:020000040800F2
:10000000181E0020B5360008013700080537000823
:10001000093700080D3700081137000800000000FC
:10002000000000000000000000000000153700087C
:1000300019370008000000001D370008911C000857
:100040002137000825370008293700082D37000818
:100050003137000835370008393700083D370008C8
:100060004137000845370008493700084D37000878
:100070005137000855370008593700085D37000828
:100080006137000865370008693700086D370008D8
:100090009536000871370008753700087937000871
:1000A0007D3700080F1D00088137000885370008DC
:1000B000893700088D370008913700089537000808
:1000C000993700089D370008A1370008A5370008B8
:1000D000A9370008C73200088B3000080734000831
:1000E000AD370008B13700089D36000810B5040090
:1000F000A4B2002C06D1DFF8D00B006801210182E8
:10010000002008E0DFF8C40B006800688047DFF8D3
:10011000B80B00680A3010BD80B5DFF8B40B40782A
:10012000DFF8A41B0968C97888421AD3DFF8980B56
:1001300000688078002814D1DFF88C0B0068808874
:1001400000280ED1DFF8800B0068DFF87C1B0968FF
:10015000C9788172DFF8740B00684068804700201E
:1001600000E0022002BD10B50400A4B2002C06D1AC
:10017000DFF8540B006801210182002008E0DFF85D
:100180004C0B006880688047DFF83C0B00680C303F
:1001900010BD10B5DFF8300B0068C178DFF8280B10
:1001A00000684079DFF8B02B12689269904704002C
:1001B000DFF8140B0068807A00282AD0E4B2002C03
:1001C0000BD1DFF8040B00680079002805D1DFF8B7
:1001D000F80A00688078002801D002201AE0E4B212
:1001E000002C16D1DFF8E40A0068C0688047DFF809
:1001F000D80A0068DFF8D01A09684979C172DFF8B7
:10020000C80A0068DFF8C01A0968C97801730020BD
:1002100000E0022010BD10B50400A4B2002C06D1ED
:10022000DFF8A40A00680221018200207FE0DFF8E5
:100230002C0B00210180DFF8900A006800787F21F4
:1002400008422AD1DFF8800A0068407A810608D582
:10025000DFF8081B097851F00201DFF8002B11705C
:1002600007E0DFF8F81A097811F0FD01DFF8EC2A51
:100270001170410608D5DFF8E41A097851F0010140
:10028000DFF8D82A11704BE0DFF8D01A097811F0A6
:10029000FE01DFF8C82A117042E0DFF82C0A00687E
:1002A000007810F07F00012802D1DFF8B00A3EE0AC
:1002B000DFF8140A0068007810F07F0002282DD1C2
:1002C000DFF8041A0968497911F00F0210000A06D4
:1002D00011D5C0B2DFF8882A52F8202012F030027F
:1002E000102A1DD1DFF8742A127852F00102DFF8CB
:1002F0006C3A1A7014E0C0B2DFF8642A52F8202079
:1003000012F44052B2F5805F0AD1DFF8502A127819
:1003100052F00102DFF8443A1A7001E0002006E0D2
:10032000DFF8A809006800698047DFF8300A10BDCF
:100330002DE9F843DFF890090068007810F07F0499
:10034000002C0BD1DFF880090068407A10F0DF0044
:10035000DFF874190968487200209EE0022C40F012
:100360009B80DFF8640900684088002805D1DFF829
:10037000580900680079002801D002208DE0DFF8DC
:1003800050090600DFF8400900684079804638F0DF
:10039000800081464F46DFF830090068407900064A
:1003A00007D5DFF8BC0950F8270010F03000050031
:1003B00006E0DFF8AC0950F8270010F440500500C3
:1003C0003078814507D2002D05D0DFF8FC080068A1
:1003D000807A002801D102205FE05FEA086011D531
:1003E000DFF87C0950F8270010F0300010284CD1BD
:1003F0003800C0B200F097FD30213800C0B200F0E4
:10040000FAFC42E0DFF8580950F8270010F4405099
:10041000B0F5805F39D1002F1ED1DFF8480990F880
:100420002C1089B23800C0B200F0E1FDDFF83019BD
:1004300051F827104BF68F721140080090F480504D
:1004400090F40050DFF8181940F4004050F080009C
:1004500080B241F8270018E03800C0B200F04AFD31
:10046000DFF8FC1851F827104BF68F721140080086
:1004700090F4805090F40050DFF8E41840F400400D
:1004800050F0800080B241F82700DFF84008006893
:1004900040698047002000E00220BDE8F283F8B503
:1004A000DFF8240800684079040034F0800006007A
:1004B0003500DFF8140800684079000607D5DFF83A
:1004C000A00850F8250010F03000070006E0DFF823
:1004D000900850F8250010F440500700DFF8F007AE
:1004E000007885420DD2DFF8E007006840880028D8
:1004F00007D1002F05D0DFF8D0070068807A0028E8
:1005000001D102202EE0200613D5DFF8541851F84F
:10051000251048F6BF721140080090F01000DFF877
:10052000401840F4004050F0800080B241F82500AF
:1005300012E0DFF82C1851F825104BF68F7211409D
:10054000080090F48050DFF8181840F4004050F094
:10055000800080B241F82500DFF8700700688069EC
:1005600080470020F2BD80B5DFF85C070068407A64
:1005700050F02000DFF8501709684872DFF84C0788
:100580000068C0698047002002BD10B40200DFF897
:1005900038070068408A030092B2002A07D1888891
:1005A000C01ADFF8244724682082002001E0086890
:1005B000181810BC7047F8B5DFF80C07006810F188
:1005C000100420880500A06800281BD0002D19D039
:1005D000A0880700BD4200D22F00380080B2A16879
:1005E000884706002088C01B2080608838186080FB
:1005F000002000F0E2FC3A0092B2010089B2300023
:1006000000F061FD208800280CD0DFF85C074FF473
:10061000405101800021002000F0DCFCDFF84C0795
:10062000302101802088A188884205D3DFF8980610
:100630000068032101721DE02088002805D0DFF842
:10064000880600680521017214E02088002811D175
:10065000DFF87406006806210172DFF814070068ED
:1006600080B2DFF81017002241F81020DFF8FC06F6
:1006700030210180F1BD2DE9F041DFF84C06006822
:1006800010F110042588DFF840060068067A002D76
:1006900021D1042E1FD1DFF8E0060078012813D104
:1006A000DFF8CC06006880B2DFF8C816002241F8F7
:1006B0001020DFF8B8063021018004200600DFF8A2
:1006C000B8060021017005E007200600DFF89C064F
:1006D000102101802EE0A0888046A84501D3042681
:1006E00000E00226454500D2A846404680B2A168F7
:1006F00088470700002000F053FC424692B20100F8
:1007000089B2380000F0BFFC414689B2002000F0F9
:1007100061FC2088B0EB08002080608818EB0000A6
:100720006080DFF8480630210180DFF83C064FF496
:1007300040510180DFF8900500680672BDE8F08145
:1007400070B50224DFF8800500684578DFF8780589
:10075000006800787F21084255D1092D03D1FFF7A9
:10076000DBFC040073E0052D1DD1DFF85C0500689B
:10077000C078802811DADFF85005006880780028FA
:100780000BD1DFF8440500688088002805D1DFF828
:1007900038050068807A002802D0082006007CE036
:1007A0000020040053E0032D12D1DFF81C0500687F
:1007B000C078012809D1DFF810050068808800287A
:1007C00003D1FFF7D0FE040041E0022004003EE028
:1007D000012D3CD1DFF8F0040068C07801280FD16A
:1007E000DFF8E40400688088002809D1DFF8D80425
:1007F0000068407A800603D5FFF79AFD040026E0E2
:100800000220040023E0DFF8C0040068007810F044
:100810007F00012805D10B2D19D1FFF7BAFC040088
:1008200015E0DFF8A4040068007810F07F000228CB
:100830000BD1012D03D1FFF77BFD040007E0032D51
:1008400005D1FFF72CFE040001E002200400E4B211
:10085000002C0DD02800C0B2DFF8FC1409684969EB
:1008600088470400E4B2032C02D10920060014E0FA
:10087000E4B2002C02D0082006000EE0062006009C
:10088000DFF8EC04006880B2DFF8E814002241F8D9
:100890001020DFF8D80430210180DFF82C04006834
:1008A000067270BD2DE9F04782B0DFF81C040068C5
:1008B00046780020040000208146062E27D1DFF86C
:1008C0000804006800787F21084240F0D080DFF8FB
:1008D000F80300688078C0B2012805D1DFF87814E9
:1008E0000968C9690C00C2E0C0B2022805D1DFF86E
:1008F00068140968096A0C00B9E0C0B2032840F026
:10090000B680DFF854140968496A0C00AFE0002E85
:1009100078D1DFF8B40300684088002872D1DFF88E
:10092000A8030068C08802286CD1DFF89C03006827
:100930000079002866D1DFF89003006800787F21F5
:10094000084209D1DFF8800300688088002803D1BD
:10095000DFF8280404008AE0DFF86C030068007800
:1009600010F07F00012815D10021DFF85C0300683A
:100970004079DFF8E423126892699047002876D125
:10098000DFF844030068807A002870D0DFF8EC03B9
:1009900004006CE0DFF830030068007810F07F009E
:1009A000022864D1DFF820030068407910F00F00BE
:1009B0000700DFF814030068407910F070008046EB
:1009C000C14800684079000607D5DFF8940350F865
:1009D000270010F03000824606E0DFF8840350F86C
:1009E000270010F440508246B948007887423ED232
:1009F000B8F1000F3BD1BAF1000F38D0DFF87C031B
:100A0000040034E0082E09D1AF48006800787F2147
:100A100008422CD1DFF86803040028E00A2E26D112
:100A2000A9480068007810F07F0001281FD1A6486F
:100A30000068807A00281AD0A348006840880028FF
:100A400015D1A14800680079002810D19E4800689F
:100A5000C08801280BD100219B4800684079BE4A1C
:100A6000126892699047002801D1C648040020000E
:100A700000280BD094480068A0F8129092480068B3
:100A800084610020A047002005000FE08E48006828
:100A90004078B1490968096988470500EDB2032D1E
:100AA00004D1894800680921017264E08648006821
:100AB000008A4FF6FF71884204D1834800680921FB
:100AC000017258E0EDB2022D04D07F480068008A20
:100AD000002804D17C480068082101724BE07A4864
:100AE0000068007800063ED577480068C08800900E
:100AF000009875490968098A884204D272480068DA
:100B00000099018225E070480068008A6E490968F2
:100B1000C98888421DD26C480068008A8E490968DD
:100B200091F82C1089B2884203D2934800210170B9
:100B30000FE065480068008A8749096891F82C1021
:100B400090FBF1F201FB1200002802D18A4801213A
:100B500001705D4800688049096891F82C10818215
:100B6000FFF789FD07E058480068032101727E48BD
:100B70004FF440510180BDE8F38738B501257C482A
:100B8000006880B2804931F81000400000F18040D8
:100B900010F5C04004004C480068007A092826D0AF
:100BA0004948006821780170641C47480068217832
:100BB0004170641CADB214EB45042000841C008815
:100BC00000F056FA404909684880ADB214EB45047C
:100BD0002000841C008800F04BFA3B49096888809B
:100BE000ADB214EB4504384800682188C18036480E
:100BF00000680121017234480068C088002802D1D1
:100C0000FFF79EFD01E0FFF74DFE00F063F832BDF7
:100C100010B52D480068047A022C01D0042C06D1AE
:100C2000FFF729FD28480068007A04001EE0062C22
:100C30001AD125480068407805280ED1224800685E
:100C400000787F21084208D11F480068C07800F072
:100C50005FF81E480068006A80473F480068806867
:100C600080470820040001E00820040016480068BE
:100C7000047200F02FF810BD10B513480068047A14
:100C8000022C01D0042C02D10820040015E0032C12
:100C900001D0052C06D1FFF78EFC0B480068007AC6
:100CA00004000AE0072C06D12B480068C068804782
:100CB0000820040001E008200400034800680472D2
:100CC00000F008F810BD0000E8190020F01900201D
:100CD000C000002080B5234890F82C1089B2002075
:100CE00000F085F929480068007A082806D11E48D6
:100CF0004FF4805101801D48102101802348006875
:100D0000007A092801D1012000E00020C0B202BD14
:100D100030B41F4A127800231900914215D20B00FB
:100D2000DBB20F4C54F8233048F68F7423400C008C
:100D3000E4B2234343F4004353F080030C00E4B2D5
:100D4000074D45F82430491CE7E7C0B250F0800356
:100D5000104C236030BC7047EC190020E0190020D3
:100D6000005C0040000000200C1A00200E1A002039
:100D7000505C004004600040141A00201702000874
:100D8000ED0000086701000808600040E819002035
:100D9000C00000204C5C0040704710B450F8041BA9
:100DA00081B102681218001D50F8043BDC0744BFF3
:100DB000A9F10104E31852F8044B43F8044B091F4E
:100DC000F9D1EBE710BC70474FF6F8710140DFF83E
:100DD000882211607047C0B2DFF8802252F82020CC
:100DE00048F68F131A400A4392B2C0B2DFF86C3251
:100DF00043F82020704710B4C0B2DFF8603253F8D7
:100E0000203048F6BF7423401A00CB0601D592F07B
:100E100010028B0601D592F02002C0B2DFF83C32FE
:100E200042F4004252F0800292B243F8202010BCFB
:100E3000704710B4C0B2DFF8243253F820304BF6BC
:100E40008F7423401A00CB0401D592F480528B0496
:100E500001D592F40052C0B2DFF8003242F40042F1
:100E600052F0800292B243F8202010BC7047C0B20A
:100E7000DFF8E82152F8202048F6BF731A4011002D
:100E800091F0100191F02001C0B2DFF8D02141F4BF
:100E9000004151F0800189B242F820107047C0B281
:100EA000DFF8B82152F820204BF68F731A4011005A
:100EB00091F4805191F40051C0B2DFF8A02141F4C7
:100EC000004151F0800189B242F820107047C0B251
:100ED000DFF8881151F8201048F68F62114041F474
:100EE000004151F0800189B2C0B2DFF8702142F8B0
:100EF00020107047C0B2DFF8641151F82010490487
:100F000010D5C0B2DFF8541151F8201048F68F7296
:100F1000114041F4404151F08001C0B2DFF83C2162
:100F200042F820107047C0B2DFF8301151F820109D
:100F3000490610D5C0B2DFF8241151F8201048F648
:100F40008F72114041F4004151F0C001C0B2DFF88E
:100F50000C2142F82010704710B4DFF8FC20126812
:100F600092B2C0B212EBC002DFF8F43089B24C0882
:100F7000A4B2640043F8124010BC704710B4DFF80C
:100F8000D820126892B2C0B212EBC002DFF8D4309F
:100F900089B24C08A4B2640043F8124010BC7047F8
:100FA000DFF8B410096889B2C0B211EBC000DFF8F5
:100FB000B01051F8100080B27047DFF89C1009683B
:100FC00089B2C0B211EBC000DFF8981051F81000E0
:100FD00080B27047DFF88020126892B2C0B212EB84
:100FE000C002DFF8843089B243F81210704730B481
:100FF000DFF864301B689BB2C0B213EBC003DFF8AC
:101000006C4014EB43031A0089B23F290CDB89B210
:101010004C0923001F24214200D15B1E9BB29B027E
:1010200053F40043136008E089B24C082300CC0756
:1010300000D55B1C9BB29B02136030BC7047064915
:10104000096889B2C0B211EBC000084951F810001C
:101050008005800D70470000505C0040005C00403F
:101060000060004008600040046000400C600040E8
:1010700001000B001A0089B2D2B2130253EA112305
:10108000180080B27047F0B492B2531C5B1089B262
:101090005FEA410C0CF1804C1CF5C04C67461C000B
:1010A000002C0ED090F800C06546401C90F800C09F
:1010B00055EA0C2C66463E80BF1CBF1C401C641EBB
:1010C000EEE7F0BC704770B492B2531C5B1089B26B
:1010D0004E0006F1804616F5C04635001C00002C77
:1010E00006D02E6806802D1D401C401C641EF6E7AD
:1010F00070BC704738B504000D00DFF8040544707B
:10110000DFF8FC0405700421DFF8F80400F06EFB42
:101110000420ADF8000010208DF8030003208DF8A6
:10112000020000A9DFF8DC0400F0B8FA1021DFF8B3
:10113000D40400F05BFB1020ADF8000010208DF807
:10114000030003208DF8020000A9DFF8B80400F0C6
:10115000A5FA0821DFF8AC0400F048FB0820ADF840
:10116000000010208DF8030003208DF8020000A974
:10117000DFF8900400F092FA1021DFF8880400F004
:1011800035FB4FF4FA6000F077FB1021DFF87404B0
:1011900000F02FFB43F6982000F06EFB1021DFF8E3
:1011A000640400F023FB00F0B2F90821012000F0F4
:1011B0001BF9DFF84C04007800F0FDF8002000F087
:1011C0000CF9002000F0DBF8012000F027F90020E6
:1011D00000F0A6F8002000F0DEF8002000F02EF964
:1011E000DFF81C044078802809D1DFF81404007867
:1011F000202804D10021002000F030F91CE0DFF8A5
:1012000000044078802809D1DFF8F40300784028F2
:1012100004D10021012000F021F90DE0DFF8E00306
:101220004078602808D1DFF8D8030078102803D16F
:101230000021002000F012F97F2000F084F9022143
:10124000022000F029F9402000F04DF900F06DF97E
:1012500000F072F900F054F900F060F931BDF8B512
:1012600004000D0016000821DFF8980300F0C1FA11
:101270000421DFF8900300F0BCFA2000C0B200F0B7
:1012800014FC00200700BFB2785D00F00EFC7F1C4C
:10129000BFB2B6B2B742F6D30421DFF8680300F05C
:1012A000A5FAF1BD70B504000D000821DFF8540364
:1012B00000F09CFA0421DFF84C0300F09AFA0020B9
:1012C0000600B6B2305D00F0F0FB761CB6B2ADB2EF
:1012D000AE42F6D30421DFF82C0300F087FA082190
:1012E000DFF8200300F085FA70BD38B504000D006A
:1012F000DFF80C034078411EC9B2002000F01DF851
:10130000DFF8FC020078C0B2C008411EC9B200205C
:1013100000F024F8290089B22000FFF7C3FF31BD97
:1013200010B50400E4B2032C06DA0022002154F0C8
:101330002000C0B2FFF793FF10BD38B504000D00C8
:1013400014F07F0415F07F058DF800408DF80150F2
:10135000022200A92120FFF782FF31BD38B5040029
:101360000D0014F0070415F007058DF800408DF806
:101370000150022200A92220FFF771FF31BD10B5F4
:10138000040014F03F040022002154F04000C0B2D9
:10139000FFF765FF10BD10B50400E4B2002C01D0CA
:1013A000012400E000240022002154F0A000C0B27B
:1013B000FFF755FF10BD01B59DF80000401E8DF8E8
:1013C00000009DF8000010F03F008DF800000122A1
:1013D00000A9A820FFF743FF01BD01B5012200A924
:1013E000D320FFF73CFF01BD11B581B00C009DF883
:1013F0000400401E8DF804009DF8040010F00F005A
:101400008DF804009DF8040050EA04108DF80400E3
:10141000012201A9D520FFF722FF13BD01B59DF8D8
:101420000000002801D0142000E010208DF80000FA
:10143000012200A98D20FFF712FF01BD10B50400A5
:10144000E4B2002C01D0082400E000240022002196
:1014500054F0C000C0B2FFF702FF10BD38B5040061
:101460000D0002208DF80000E4B2002C05D09DF89C
:10147000000050F010008DF80000EDB2002D05D0F6
:101480009DF8000050F020008DF80000012200A916
:10149000DA20FFF7E4FE31BD11B581B00C009DF8F4
:1014A000040010F00F008DF804009DF8040010F007
:1014B0000F008DF804009DF80400002802D10220DE
:1014C0008DF80400E4B2002C01D1022004009DF844
:1014D000040050EA04108DF80400012201A9D9206B
:1014E000FFF7BDFE13BD01B59DF8000010F07000C0
:1014F0008DF80000012200A9DB20FFF7B0FE01BD3E
:1015000080B5002200212E20FFF7A9FE01BD80B585
:1015100000220021AE20FFF7A2FE01BD80B500220F
:101520000021AF20FFF79BFE01BD80B50022002106
:10153000A420FFF794FE01BD80B500220021A62063
:10154000FFF78DFE01BD01B5012200A98120FFF743
:1015500086FE01BD80B540218020FFF7CBFD002035
:1015600000F00DF84FF480612748FFF7BEFE01BD83
:1015700010B504002000C0B2FFF7E5FF10BD10B5A4
:1015800004004FF48062E4B221001F4800F0A6FA84
:1015900010BD80B54FF480611B48FFF7A6FE01BD6A
:1015A00070B4C0B2802802DAC9B2402900DB24E05E
:1015B000C9B2CC08E4B2C9B2A4B2B1EBC40380256D
:1015C0006C43C0B20419D2B2002A0BD0A4B20C4DA5
:1015D0006519AD7801269E403543A4B2084EA61980
:1015E000B5700AE0A4B2064D6519AD7801269E409B
:1015F000B543A4B2024EA619B57070BC7047000086
:10160000F810002000080140FA1000202DE9F84FE2
:1016100004000D0016000A9FA9465FFA89F9EDB291
:101620009DF800004019814536DAA0465FFA88F837
:10163000E4B2F6B2301980452BDA002083463878C0
:1016400082467F1C5FFA8AFABAF1000F1ED05FFA59
:101650008BFBBBF1080FE9DA5FEACA7007D50122FC
:101660001BEB0901C9B24046C0B2FFF799FF5FFA10
:101670008AFA5FEA5A0A5FFA8AFABAF1000F02D0D0
:101680001BF1010BE3E718F10108CFE718F101089E
:10169000CCE719F10809C0E7BDE8F18FF0B50027E4
:1016A0000022002300240025002691F803C01CF02E
:1016B0000F0C674691F803C05FEACC6C03D591F834
:1016C00002C05CEA070791F800C05FEA0C6C3AD0F0
:1016D000D0F800C065465FF0000C6346082B31D29D
:1016E0005FF0010C1CFA03FC6446B1F800C014EA78
:1016F0000C0C6246A24223D15FEA830C64465FF081
:101700000F0C1CFA04FC6646B54317FA04FC5CEAAD
:10171000050591F803C0BCF1280F06D15FF0010C5C
:101720001CFA03FCC0F814C00AE091F803C0BCF135
:10173000480F05D15FF0010C1CFA03FCC0F810C083
:101740005B1CCBE70560B1F800C0BCF1FF0F3FDDCB
:10175000D0F804C065465FF0000C6346082B36D213
:101760005FF0010C13F1080E1CFA0EFC6446B1F890
:1017700000C014EA0C0C6246A24226D15FEA830C38
:1017800064465FF00F0C1CFA04FC6646B54317FA7A
:1017900004FC5CEA050591F803C0BCF1280F07D1F1
:1017A0005FF0010C13F1080E1CFA0EFCC0F814C017
:1017B00091F803C0BCF1480F07D15FF0010C13F1A1
:1017C000080E1CFA0EFCC0F810C05B1CC6E7456092
:1017D000F0BD02000020936889B20B4202D00123C1
:1017E000180001E000231800C0B2704789B20161FF
:1017F000704789B24161704775484078002804D02D
:1018000073484078401E72494870704780B5012186
:10181000042000F06DF90121082000F069F9012190
:10182000102000F065F90121202000F061F901216C
:10183000012000F05DF901BD80B500F06BF900F00A
:101840000BF8FFF7E3FF00F011FA00F029FA00F0BF
:101850008DFA00F0D1F801BD5E48006850F080704C
:101860005C4908605C48002101605C48006850F0F9
:1018700001005A490860704738B5040056480068AE
:10188000482101FB0405280000F0BEFA0028FAD127
:1018900031BD10B582B0FFF7CFFF62B64C480A21C8
:1018A00041704B4840780028FBD1FFF753FEFF20E2
:1018B000FFF75EFEFFF740FE0020FFF760FEFFF738
:1018C00068FE4FF47A70FFF7D7FF00F063FA4448E0
:1018D0000521017000F0B0FA42480078002849D193
:1018E0003B4840780028F0D13948032141703E48F8
:1018F0000088401C302101FB00F23C493C4800F0CC
:101900009CFA3B4800904023802200210020FFF7F2
:101910007DFEFFF73EFE34480088401C32490880B7
:10192000314800881528D0DB2F480088401C302122
:1019300001FB00F22D492E4800F07FFA2C48009060
:101940004023802200210020FFF760FEFFF721FEE8
:10195000244801210170FF2004002000C0B2FFF7DD
:1019600007FE4FF4FA60FFF787FF641EA4B2002C55
:10197000F3D1AAE71648322141701A4800210170BC
:101980001948002101804FF480620021184800F0BE
:10199000A5F818480078002803D1164801210170E5
:1019A00002E01448002101700020FFF7E8FDFFF776
:1019B000F0FD002004002000C0B2FFF7D9FD4FF475
:1019C000FA60FFF759FF641CA4B2FF2CF3DD7CE73B
:1019D000FC180020FCED00E0041000E0001000E026
:1019E000D8190020121A0020081A00205C210008D3
:1019F000FC140020131A002000B587B00121042038
:101A000000F076F801214FF4805000F071F82020AA
:101A1000ADF8000018208DF8030003208DF80200B7
:101A200000A92A48FFF73AFE8020ADF800001820F0
:101A30008DF8030003208DF8020000A92348FFF76A
:101A40002DFE4020ADF8000004208DF80300032097
:101A50008DF8020000A91D48FFF720FE0020ADF818
:101A600004004FF48270ADF806000020ADF80800C5
:101A70000020ADF80A000020ADF80C004FF4007013
:101A8000ADF80E001020ADF810000020ADF81200E7
:101A90000720ADF8140001A90D4800F0E5F9012177
:101AA0000B4800F001FA07B000BD010009480088AA
:101AB0008007FBD50848C9B2018006480088C007E6
:101AC000FBD505480088C0B27047000000080140FF
:101AD00000300140083001400C30014010B5044690
:101AE00010460A460146204600F0ECF9204610BD9B
:101AF000C9B2002905D0064A12680243044B1A6095
:101B000004E0034A12688243014B1A6070470000E8
:101B10001810024080B54E48006850F001004C4952
:101B200008604C4800684C4908404A4908604848E9
:101B300000684A490840464908604548006830F452
:101B40008020434908604348006830F4FE00414962
:101B5000086043485FF41F01016000F005F8414848
:101B60005FF00061016001BD80B500F001F801BDCA
:101B700082B000200190002000903548006850F4A9
:101B80008030334908603248006810F4003000901B
:101B90000198401C01900098002803D10198B0F5ED
:101BA000A06FF0D12A480068800302D50120009080
:101BB00001E0002000900098012847D12A480068E1
:101BC00050F010002849086027480068800880000D
:101BD000254908602448006850F002002249086046
:101BE0001C481C49096801601A481A4909680160C3
:101BF0001848006850F4806016490860154800686D
:101C000030F47C10134908601248006850F4E81062
:101C1000104908600E48006850F080700C49086058
:101C20000B4800688001FBD50A48006880088000E6
:101C3000084908600748006850F00200054908603C
:101C40000448006810F00C000828F9D102B0704771
:101C500000100240041002400000FFF8FFFFF6FEF3
:101C60000810024008ED00E0002002400448054949
:101C7000016005480349016004480721016070477D
:101C800014E000E0E8180B0018E000E010E000E0CD
:101C900080B5FFF7B1FD00F04DF800F0C1F801BDCF
:101CA00000B585B019208DF8000000208DF80100E6
:101CB00000208DF8020001208DF8030000A800F03C
:101CC00035F901214FF40060FFF712FF01A800F081
:101CD000B3F90020ADF80600134800681349B0FBC3
:101CE000F1F0401EADF8040040F2E730ADF8080016
:101CF00001A90F4800F056F9012201210C4800F01B
:101D0000B5F901210A4800F0A3F905B000BD80B57E
:101D10000121074800F0B5F9002803D0012104484B
:101D200000F0C8F901BD0000BC00002040420F00D7
:101D3000002C014031480078002804D02F4800785A
:101D4000401E2E4908702D484078002804D02B48AA
:101D50004078401E2949487029484088002804D00E
:101D600027484088401E26494880704780B5012199
:101D70001020FFF7BDFE4FF40050ADF8000010201A
:101D80008DF8030003208DF8020000A91D48FFF71D
:101D900085FC01BD80B51948007800281CD0174883
:101DA0004078002828D11548012141704FF4005196
:101DB0001448FFF70EFD002805D04FF400511148DC
:101DC000FFF717FD18E00D48082141704FF400514E
:101DD0000C48FFF70BFD0FE00848407800280BD1B6
:101DE0004FF400510748FFF7F4FC002804D14FF4EA
:101DF00000510448FFF7FAFC01BD0000D81900208B
:101E0000DC1900200010014004490968081A002864
:101E100001D5012000E00020C0B27047041000E0AE
:101E200004484078002804D002484078401E014908
:101E300048707047D4190020704710B5044600F070
:101E400051F9204610BD50F8041B61B150F8042B25
:101E5000D30744BFA9F101039A18002342F8043BB9
:101E6000091FFAD1EFE7704710B4002203881A0067
:101E700012F441520B884C8823438C882343CC882E
:101E800023430C8923434C8923438C892343CC89E6
:101E900023431A430280838B4FF2FF7423408383D2
:101EA0000B8A038210BC7047C9B2002904D0028893
:101EB00052F04002028004E002884FF6BF731A40DD
:101EC0000280704762F30F2262F31F42401810F045
:101ED000030308D0C91A1FD3DB0748BF00F8012D40
:101EE00028BF20F8022D130030B4144615461039CF
:101EF00028BF20E93C00FAD8490728BF20E90C0098
:101F000048BF40F8042D890028BF20F8022D48BFA3
:101F100000F8012D30BC7047C91818BF00F8012D1A
:101F2000CB0728BF00F8012D70470000F0B4002354
:101F300000210F22C478002C20D0164C246814F401
:101F4000E064D4F5E064240A2300D3F10404210002
:101F5000DA4044788C4023008478144023431B01EA
:101F600004780D4D6355047864110C4D01260778F3
:101F700017F01F07BE4045F8246009E0047864119B
:101F8000074D0126077817F01F07BE4045F824606B
:101F9000F0BC70470CED00E000E400E000E100E080
:101FA00080E100E0002203881A00DFF81031984237
:101FB00012D0DFF8203198420ED0B0F1804F0BD014
:101FC000DFF8FC30984207D0DFF8F830984203D0B1
:101FD000DFF8F430984204D14FF68F731A404B88E3
:101FE0001A43DFF8E830984208D0DFF8E43098422E
:101FF00004D04FF6FF431A40CB881A4302808B88E7
:1020000083850B880385DFF8B43098420FD0DFF862
:10201000C43098420BD0DFF8C030984207D0DFF8C8
:10202000BC30984203D0DFF8B830984201D10B7A27
:1020300003860123838270474FF6FF718180002160
:1020400001800021C1800021418000210172704780
:10205000C9B2002904D0028852F00102028004E0D3
:1020600002884FF6FE731A4002807047D2B2002AEF
:1020700003D083890B43838102E083898B4383816F
:10208000704730B40200002000230024158A0D4060
:102090002B0095890D402C009BB2002B05D0A4B2DB
:1020A000002C02D00125280001E000252800C0B244
:1020B00030BC704789B2CA4302827047002C01408D
:1020C0000004004000080040000C004000100040E8
:1020D0000014004000340140004001400044014031
:1020E0000048014062B38B0708D0521E11F8013B33
:1020F00000F8013B00F024808B07F6D1830740F005
:10210000208000BF103A07D330B4B1E83810103A3D
:10211000A0E83810F9D230BC530724BFB1E808104A
:10212000A0E8081044BF51F8043B40F8043BD20734
:1021300024BF31F8022B20F8022B44BF0B78037028
:102140007047083A07D3B1E80810083A40F8043B52
:1021500040F804CBF7D25307E4E7000004043CFC4A
:102160003464C4840404040404040404040404045F
:1021700004040404040404040404040484C464344F
:10218000FC7C1C040000000000000000000080C077
:1021900080000000000080C0800000C0C0C0C0C03F
:1021A000C0C0C0C080000000000000000080C0C0AF
:1021B000C0C0C0800000000000000000C0C080005F
:1021C000000000000000008080C0C0C0C0C08000CF
:1021D00000000000000000000000000000000001FE
:1021E000073CF0800103060C18B0E0E0B09018182E
:1021F000181818B0E0E0F0180C0E060301E07C0F90
:102200000300000000000000000000000000FFFFCD
:10221000B83030303030B8FFFF000000000001FF60
:10222000FF000000000000000000000003030100A8
:102230003030397FC780000000E0F8DF87839FFCE3
:10224000F080000000FCFF0301000000000103FF1C
:10225000FE10000000000000000000000000000070
:10226000000000071EF0C000003FE08000030FFEEA
:10227000FE0E070180C07F1E0080E03C0F010000C1
:1022800000000000000000000000000000000F0F30
:10229000070000000000040F070000000000000F0E
:1022A0000F000000000000000000000007070E0CF7
:1022B0000C0C0C0F0701000C0F07010101010101BB
:1022C000030F0E00000103070E0C0C0C0C0E07038D
:1022D00001000000000000000000000000000000FD
:1022E000000000000000031E78C00001010302FF8F
:1022F000FF020303010080F03C0701000000000022
:10230000000000000080F0D80000F0D800000000BD
:102310000080F07878F0C000000000000000F8F8BD
:1023200018181818F8F8F80000000000C0F07878C5
:10233000F0C00000000000F0F8F81818181838F085
:10234000E00000F0F8F8F8F0000000C0F8F8F8F845
:1023500000000098F8000098F870000000000000ED
:10236000000000000000000000030F78E00000FF04
:10237000FF0000C0F01E0700000000000000000089
:10238000000000000000010000000101000080F0DA
:10239000FE3F1B18183B3F7FF8E00000C0C0FFFF66
:1023A00000000000FFFFFF0000C0F0FE3F1B181000
:1023B0001B3F7EF8C00000FFFFFF040C0606070766
:1023C000030000FFFFFF000FFFF8F83F0100FFFFD1
:1023D00000000000000000000000000000000000FD
:1023E000000000000000000000000000010F38FFA6
:1023F000FF781E0300000000000000000000000045
:1024000000000000000000000000000000000101CA
:1024100000000000000000000001000000010000BA
:1024200000000000000100000001010000000000A9
:10243000000000000100000001000000000000009A
:102440000000000001000000000100000000000189
:10245000000000000000000000000000000000007C
:10246000000000000000000000000000000000016B
:102470000300000000000000000000000000000059
:10248000000000000000000000000000000000004C
:10249000000000000000000000000000000000003C
:1024A000000000000000000000000000000000002C
:1024B000000000000000000000000000000000001C
:1024C000000000000000000000000000000000000C
:1024D00000000000000000000000000000000000FC
:1024E00000000000000000000000000000000000EC
:1024F00000000000000000000000000000000000DC
:1025000000000000000000000000000000000000CB
:1025100000000000000000000000000000000000BB
:1025200000000000000000000000000000000000AB
:10253000000000000000000000000000000000009B
:10254000000000000000000000000000000000008B
:1025500000000000000000000000000080B500F056
:1025600086F98B4800680021817200F0DBF900F0E9
:1025700003FB00F03FF987480021016001BD80B5F1
:102580008348006800218172814800688249C979C6
:1025900041727F4800680021C1720020FEF714FCE0
:1025A0004FF400710020FEF716FC10210020FEF70A
:1025B00022FC40210020FEF7E1FC80210020FEF7F4
:1025C000CBFC0020FEF783FC744890F82C1089B2F5
:1025D0000020FEF70CFD0020FEF761FC0021012029
:1025E000FEF7F9FBC0210120FEF7B6FC20210120F7
:1025F000FEF701FC00210120FEF71BFC4FF4C06137
:102600000220FEF7E8FB4FF480710220FEF7A4FCE5
:1026100000210220FEF70DFC20210220FEF7EBFB3B
:1026200000210320FEF7D7FB4FF488710320FEF74B
:10263000A5FC40210320FEF7DAFC4FF440510320B3
:10264000FEF7F7FB00210320FEF7D5FB0020FEF785
:102650005FFB50480121016001BD80B55048007802
:10266000202804D100F0C7F84D480021017001BDB9
:10267000704738B5040000200500E4B2212C0AD1CF
:1026800043480068007810F07F00212813D10FF232
:10269000D10005000FE0E4B2202C0CD13C480068CA
:1026A000007810F07F00212802D10FF2CD00050044
:1026B0003B48202101702800002801D1022009E0B8
:1026C000334800688561324800680021418200205B
:1026D000A847002032BD01002D480068007810F0A6
:1026E0007F00212809D1C9B2022901D1002005E0CB
:1026F000C9B2222901D1002000E00220704710B5A4
:1027000004002849200080B2FDF73FFF10BD10B53E
:1027100004002549200080B2FDF737FF10BD38B511
:1027200004001B480068C578EDB2052D01DB0020D0
:1027300007E0EDB21D4810EBC501200080B2FDF7A7
:1027400024FF32BD0200C9B2002901D0022005E0F9
:10275000D2B2022A01DB022000E000207047000014
:10276000010089B2002905D10948006808220282C7
:10277000002000E00E487047010089B2002905D111
:102780000348006808220282002000E008487047E1
:10279000E8190020FC19002038350008000000204E
:1027A000171A0020AC000020B400002030000020E8
:1027B000A400002010B5534CA07A002803D0504844
:1027C0000521016002E04E4801210160FFF7A2F9F6
:1027D00010BD10B50400E4B2002C05D04FF48051B8
:1027E0004648FFF706F804E04FF480514348FEF7EF
:1027F000FDFF10BD70470120704770B504000D004B
:1028000000200600EDB2AE4204D2305D00F067F861
:10281000761CF7E73C48012180F8051270BD80B5B1
:10282000394890F80B04002820D03748002180F860
:102830000B14354890F80402402190FBF1F202FBA2
:102840001102314880F804222F4890F8042292B2F5
:10285000C0212E48FEF717FC2B4890F8041289B2CD
:102860000120FEF7B7FB0120FEF701FB01BD70B5AB
:1028700027480068040027480068050026480068CB
:1028800006003419002C09D008222449200000F049
:1028900006F804222249280000F001F870BD30B487
:1028A000002300242300DBB2D2B2934215D2040FDE
:1028B0000A2C05D2DBB2040F303401F8134004E0D7
:1028C000DBB2040F373401F813400001DBB211EB27
:1028D0004304002565705B1CE5E730BC70470A4A7D
:1028E000B2F80022521CD205D20D110089B2064A5C
:1028F0008854054AA2F8001270470000000C0140FD
:10290000FC190020B8190020C8000020CE020020C9
:10291000E8F7FF1FECF7FF1FF0F7FF1F5200002042
:102920006200002010B50120FFF753FF01200400D2
:102930008848A4B2046088480021018085488649FF
:102940000988016085480021016083484FF4E05107
:1029500001808048804909880160002010BD18B4BA
:1029600000210020002300937A4B1B681A000023EB
:102970001900082908D27A4B7A4C54F82140A4B2A5
:1029800043F82140491CF4E752F48062714B92B243
:102990001A6052F001026F4B92B21A604FF6FE734A
:1029A0001A406C4B92B21A606C4B1B685B05FBD5EE
:1029B0006A4B4FF6FF341C6000231900082908D227
:1029C000684B674C54F82140A4B243F82140491C9D
:1029D000F4E752F008025F4B92B21A605D4B1B683D
:1029E0001A0052F004025B4B92B21A605E4B1B68F5
:1029F00000935D4B1B6818008008800050F00100B8
:102A0000594B1860594B1B6853F00403574C236013
:102A1000524B1B68DB0407D430BF544B1B6833F0A8
:102A20000403524C236015E04C4B4EF6FF741C60BF
:102A3000484B1B681A004FF6F7731A40454B92B289
:102A40001A60494B009C1C60484B1B6833F0040320
:102A5000464C236011BC704710B53E480068040026
:102A60004FF6FB7004403B48A4B20460FFF7A2FE9F
:102A700038484FF43F41016010BD38B50400E4B25E
:102A8000072C01D03A48047039480078002808D053
:102A900002281DD013D304282ED020D305283AD0E5
:102AA00052E034480068002805D1FFF7D5FF3048D0
:102AB0000621017002E02E480521017047E0FFF772
:102AC000CBFF2B48042101702A48012101603EE020
:102AD00027480221417026480321017037E024482D
:102AE0004078401E2249487021484078002802D191
:102AF0001F48042101702AE016480068050055F0BF
:102B000010051448ADB20560194805210170184838
:102B10000A2141701BE016484078401E1449487055
:102B20001348407800280ED10A48006805004FF687
:102B3000EF7005400748ADB205600D4806210170F1
:102B40000C480021016002E009480621017031BDF6
:102B500000000000405C00400A1A0020445C004075
:102B600098190020005C00400070004010ED00E06B
:102B7000001A0020041A00200648002101600648BF
:102B80004FF43F4101800548034909880160002056
:102B900070470000445C00400A1A0020405C00407E
:102BA00070B504000D00002614F07F00FEF747FA10
:102BB000060014F07F00FEF700FA320092B2010026
:102BC00089B22800FEF77FFA300070BD80B5002082
:102BD000ADF800008948006889490880000440F188
:102BE0000B818748008810F00F00864908708548DF
:102BF0000078002840F0C480834884490968018037
:102C00008148008810F03000814908807E480088A3
:102C100010F440507C4908807C49096889B24BF621
:102C2000BF721140080090F4005090F0200080B274
:102C300040F4004050F080007449086070480088FB
:102C4000C00630D47148006880B248F60F71084061
:102C50006E490860FDF7DCFF6C49096889B24BF6E4
:102C6000BF721140080068490988C90401D590F471
:102C7000805065490988890401D590F40050644961
:102C80000988C90601D590F01000614909888906B4
:102C900001D590F0200080B240F4004050F0800058
:102CA0005A490860A8E059480068ADF80000BDF82E
:102CB000000000052FD55548006840F68F71084088
:102CC00052490860FDF759FF5049096889B24BF62F
:102CD000BF72114008004C490988C90401D590F41D
:102CE000805049490988890401D590F40050484929
:102CF0000988C90601D590F0100045490988890660
:102D000001D590F0200080B240F4004050F08000E7
:102D10003E49086070E0BDF8000000047FF55AAF3E
:102D20003A48006840F68F71084038490860FDF75E
:102D3000A3FF3649096889B24BF6BF7211400800FB
:102D400031490988C90401D590F480502E49098879
:102D5000890401D590F400502D490988C90601D590
:102D600090F010002A490988890601D590F02000CA
:102D700080B240F4004050F08000244908603BE0FD
:102D800020480078214951F82000ADF80000BDF836
:102D90000000000414D51B4800781C4951F820009D
:102DA00040F68F71084017490978184A42F8210007
:102DB00014480078174911EB800050F8040C804744
:102DC000BDF8000000067FF505AF0E4800780F49FA
:102DD00051F8200080B248F60F710840094909787F
:102DE0000A4A42F82100074800780B4911EB80009D
:102DF00050F8040C8047EDE601BD0000445C004043
:102E0000101A0020151A00200C1A0020005C004047
:102E10000E1A0020880000206C00002010B588B039
:102E2000002460486049096801805E4800885F4965
:102E30000988084080050AD55B484FF6FF510160BC
:102E40005B480078401C5A49087000F0FAF8554871
:102E50000088564909880840000401D5FFF7B6FEEE
:102E600050480088514909880840400506D54E4819
:102E70004FF6FF3101604F4840688047494800885D
:102E80004A4909880840800403D547484DF6FF7138
:102E9000016044480088454909880840C00406D5B7
:102EA00041484EF6FF7101600020FFF7E6FD3D4806
:102EB00000883E490988084000050DD53E48007845
:102EC000002805D03D480068052801D1FFF747FDDF
:102ED00035484FF2FF710160324800883349098854
:102EE0000840C0055BD530484FF6FF6101603448AB
:102EF000006800044DD533480068401C3149086023
:102F000030480068042847D32F480068000743D49E
:102F10002E482D49096889B2016000200400082C60
:102F200008D200A82A4951F8241089B240F8241088
:102F3000641CF4E72548006850F00100234908604C
:102F400021482249096889B2016020480068400888
:102F500040001E4908601C481C49096889B201608C
:102F6000114800684005FBD50F484FF6FF3101605E
:102F700000200400082C08D2154800A951F824109C
:102F800089B240F82410641CF4E70E480021016067
:102F900002E00C48002101600720FFF76EFD08B039
:102FA00010BD00BF101A0020445C00400A1A002027
:102FB000161A002000000020C4000020FC19002088
:102FC000485C0040F4190020405C0040F8190020E3
:102FD000005C004080B5244890F80B04002820D005
:102FE0002148002180F80B141F4890F8040240216A
:102FF00090FBF1F202FB11021B4880F804221A48F0
:1030000090F8042292B2C0211848FEF73CF8164806
:1030100090F8041289B20120FDF7DCFF0120FDF7D2
:1030200026FF01BD10B512490320FFF7B9FD0400CA
:103030002100C9B20E48FFF7E0FB0320FDF72FFF88
:1030400010BD80B50B48006805280BD10A48006800
:10305000411C094A1160052804D10748002101607C
:10306000FFF7DDFB01BD0000C8000020CE020020FC
:1030700058190020FC190020E41900204F4800884E
:1030800050F004004D490880704770B540F225515A
:10309000484800F0C8F8002810D0464800F0BFF8B3
:1030A00004004548B0F80004401CC005C00D0600EF
:1030B0004148A0F80064B6B23F48345440F227714A
:1030C0003C4800F0B0F8002836D03B48B0F8040483
:1030D00006003948B0F80604B6B2864213D0364826
:1030E000B0F80604401CC005C00D05003248A0F829
:1030F0000654ADB23048281890F8001289B22D4815
:1031000000F089F818E040F226612A4800F0C2F881
:10311000012240F22661274800F052F8002240F2D6
:103120002771244800F04CF8234890F8090450F027
:103130000200214981F8090440F226611D4800F08F
:1031400072F8002827D040F226611A4800F0A2F851
:10315000194890F8090480071DD5174890F809040C
:1031600010F0FD00144981F80904134890F809048F
:1031700050F00400104981F80904FFF77FFF002296
:1031800040F226610B4800F01BF8012240F2255165
:10319000084800F015F84FF45871064800F043F85D
:1031A000002804D04FF45871024800F073F870BD45
:1031B0000000000000440040E00800200C440040F3
:1031C000F0B4002300240025002689B240F66A17D7
:1031D000B94206000F00FFB27F09FFB23B0089B27F
:1031E00011F01F073C000127A7403D00012B01D132
:1031F0000C3604E0022B01D1103600E01436D2B2B6
:10320000002A03D037682F43376002E03768AF43A6
:103210003760F0BC7047CA05D20D82807047808845
:10322000C005C00D704770B40200002300250024C3
:10323000002089B240F66A16B1420E00F6B2760955
:10324000F6B2340089B211F01F063500012616FAD5
:1032500005F5012C02D19689354006E0022C02D1F9
:10326000168A354001E0968A354089B20E0AB6B218
:103270003300012616FA03F316883340002D04D0DC
:10328000002B02D00126300001E000263000C0B241
:1032900070BC704710B40022002389B240F66A1453
:1032A000A14289B20C0A22000124944023009BB25F
:1032B000DC43048010BC70474E48008850F0040086
:1032C0004C490880704770B540F225514748FFF7D8
:1032D000AAFF002810D04548FFF7A1FF040044488A
:1032E000B0F80004401CC005C00D06004048A0F81E
:1032F0000064B6B23E48345440F227713B48FFF7B1
:1033000092FF002836D03A48B0F804040600384846
:10331000B0F80604B6B2864213D03548B0F80604B9
:10332000401CC005C00D05003148A0F80654ADB2E0
:103330002F48281890F8001289B22C48FFF76BFF2D
:1033400018E040F226612948FFF7A4FF012240F26D
:1033500026612648FFF734FF002240F227712348F8
:10336000FFF72EFF224890F8090450F00200204990
:1033700081F8090440F226611C48FFF754FF002839
:1033800027D040F226611948FFF784FF184890F8CB
:10339000090480071DD5164890F8090410F0FD00B7
:1033A000134981F80904124890F8090450F0040008
:1033B0000F4981F80904FFF77FFF002240F22661E0
:1033C0000A48FFF7FDFE012240F225510748FFF7AA
:1033D000F7FE4FF458710548FFF725FF002804D089
:1033E0004FF458710148FFF755FF70BD0038014098
:1033F000D40400200C3801404E48008850F00400EE
:103400004C490880704770B540F225514748FFF796
:103410000AFF002810D04548FFF701FF0400444888
:10342000B0F80004401CC005C00D06004048A0F8DC
:103430000064B6B23E48345440F227713B48FFF76F
:10344000F2FE002836D03A48B0F8040406003848A6
:10345000B0F80604B6B2864213D03548B0F8060478
:10346000401CC005C00D05003148A0F80654ADB29F
:103470002F48281890F8001289B22C48FFF7CBFE8D
:1034800018E040F226612948FFF704FF012240F2CC
:1034900026612648FFF794FE002240F22771234858
:1034A000FFF78EFE224890F8090450F002002049F0
:1034B00081F8090440F226611C48FFF7B4FE002899
:1034C00027D040F226611948FFF7E4FE184890F82B
:1034D000090480071DD5164890F8090410F0FD0076
:1034E000134981F80904124890F8090450F00400C7
:1034F0000F4981F80904FFF77FFF002240F226619F
:103500000A48FFF75DFE012240F225510748FFF708
:1035100057FE4FF458710548FFF785FE002804D088
:103520004FF458710148FFF7B5FE70BD00480040E8
:10353000EC0C00200C48004009024300020100C0CE
:1035400032090400000102020100052400100105F7
:10355000240100010424020205240600010705825B
:10356000030800FF09040100020A00000007050328
:1035700002400000070581024000000032035300B2
:1035800054004D00330032002000560069007200E4
:103590007400750061006C00200043004F004D0076
:1035A000200050006F007200740020002000000016
:1035B0002603530054004D006900630072006F0041
:1035C00065006C0065006300740072006F006E009F
:1035D000690063007300000010B507497944183191
:1035E000064C7C44163404E00A68081D51188847CC
:1035F0000146A142F8D110BD0800000028000000DB
:1036000047E8FFFF50190000C8000020000000003C
:103610008BD7FFFFC80000009C01000000000020C5
:103620000000000000F00BF8002801D0FFF7D4FFE5
:103630000020C046C046FEF72CF900F002F8012039
:10364000704700F001B800000746384600F002F865
:10365000FBE7000080B5C046C046024A11001820B2
:10366000ABBEFBE7260002004155544F523A2041C1
:103670004C4558455920535441524F5354494E00DC
:1036800012010002020000408304405700020102C0
:103690000301000080B5FFF7C1FB01BD80B55FF4F9
:1036A000802000F001F801BD01490860704700006A
:1036B000140401400148804701480047151B0008D9
:1036C000DD3600084170722020392032303234005B
:1036D00031363A33353A313900000000C046C04631
:1036E000C046C046FFF79EFF3C3C3C200000000067
:1036F000203E3E3E000000004D55580004030904E2
:10370000FFF7FEBFFFF7FEBFFFF7FEBFFFF7FEBFED
:10371000FFF7FEBFFFF7FEBFFFF7FEBFFFF7FEBFDD
:10372000FFF7FEBFFFF7FEBFFFF7FEBFFFF7FEBFCD
:10373000FFF7FEBFFFF7FEBFFFF7FEBFFFF7FEBFBD
:10374000FFF7FEBFFFF7FEBFFFF7FEBFFFF7FEBFAD
:10375000FFF7FEBFFFF7FEBFFFF7FEBFFFF7FEBF9D
:10376000FFF7FEBFFFF7FEBFFFF7FEBFFFF7FEBF8D
:10377000FFF7FEBFFFF7FEBFFFF7FEBFFFF7FEBF7D
:10378000FFF7FEBFFFF7FEBFFFF7FEBFFFF7FEBF6D
:10379000FFF7FEBFFFF7FEBFFFF7FEBFFFF7FEBF5D
:1037A000FFF7FEBFFFF7FEBFFFF7FEBFFFF7FEBF4D
:1037B000FFF7FEBF5D2500087F2500085B26000897
:1037C0007126000873260008D72600084527000840
:1037D000FF2600080F2700081F2700080000000030
:1037E00040000000FC36000804000000B03500086E
:1037F000260000007C350008320000005000002048
:103800001A0000001A03530054004D003300320028
:1038100000000000000000000000000000000000A8
:10382000D52F0008990D0008990D0008990D000882
:10383000990D0008990D0008990D0008990D0008D0
:10384000990D000825300008990D0008990D000811
:10385000990D0008990D000800C201000000080041
:1038600080360008120000003835000843000000D0
:0C38700000A24A04040100000100000056
:04000005080036DDDC
:00000001FF
