:020000040800F2
:10000000D8110020312F0008952F0008992F0008E3
:100010009D2F0008A12F0008A52F00080000000058
:10002000000000000000000000000000A92F0008F0
:10003000AD2F000800000000B12F0008592600086D
:10004000B52F0008B92F0008BD2F0008C12F0008E8
:10005000C52F0008C92F0008CD2F0008D12F000898
:10006000D52F0008D92F0008DD2F0008E12F000848
:10007000E52F0008E92F0008ED2F0008F12F0008F8
:10008000F52F0008F92F0008FD2F000801300008A7
:10009000CD2E000805300008093000080D3000089A
:1000A00011300008D5260008153000081930000866
:1000B0001D300008213000082530000829300008D4
:1000C0002D30000831300008353000083930000884
:1000D0003D30000841300008F515000845300008A3
:1000E000493000084D300008D52E000810B5040036
:1000F000200080B2002806D10120DFF8C01A09686C
:100100000882002008E0DFF8B80A0068006880472D
:10011000DFF8A80A00680A3010BD80B5DFF89C1A25
:10012000DFF8A00A40780A68D278904212D30868B3
:10013000807800280ED10868808800280AD10868D5
:10014000C07809688872DFF8780A006840688047DC
:10015000002000E0022002BD10B50400200080B2A3
:10016000002806D10120DFF8541A0968088200200F
:1001700008E0DFF84C0A006880688047DFF83C0A36
:1001800000680C3010BD38B5DFF8304A2068C178FF
:1001900020684079DFF8302A12689269904705009C
:1001A0002068807A002820D02800C0B2002807D11B
:1001B00020680079002803D120688078002801D0C9
:1001C000022013E02800C0B200280ED1DFF8F009A9
:1001D0000068C0688047206841792068C172206843
:1001E000C07821680873002000E0022032BD38B5D5
:1001F0000400200080B2002806D10220DFF8BC19DC
:100200000968088200205EE0DFF8C05900202880DD
:10021000DFF8A8090168097811F07F0F18D100688C
:10022000407A810604D5297851F00201297003E053
:10023000297811F0FD012970410604D5297851F083
:100240000101297039E0297811F0FE01297034E0AC
:100250000168097811F07F01012901D1280032E0FD
:100260000168097811F07F01022924D100684079E2
:1002700010F00F0102060ED5DFF854390A00D2B291
:1002800053F8222012F03002102A16D12A7852F0A8
:1002900001022A7011E0DFF838390A00D2B253F8AF
:1002A000222012F44052B2F5805F06D12A7852F033
:1002B00001022A7001E0002005E0DFF8040900686F
:1002C00000698047280032BD2DE9F047DFF8EC18BF
:1002D0000868047814F07F04002C07D10868407A7D
:1002E00010F0DF0009684872002086E0022C40F020
:1002F000838008684088002803D1086800790028B6
:1003000001D0022079E0DFF8BC78086890F8058019
:1003100038F080094D4608684079000606D5DFF8B8
:10032000B00850F8256016F0300605E0DFF8A008A8
:1003300050F8256016F440563878814505D2002ED5
:1003400003D00868807A002801D1022055E05FEAD6
:10035000086011D5DFF8780850F8250010F030005B
:10036000102842D12800C0B200F038FD302128000A
:10037000C0B200F0A0FC38E0DFF854A85AF825001D
:1003800010F44050B0F5805F2FD1002D19D1DFF867
:10039000440890F82C1089B22800C0B200F088FD03
:1003A0005AF825004BF68F71014091F4805191F479
:1003B000005141F4004151F0800189B24AF8251002
:1003C00013E02800C0B200F0F1FC5AF825004BF60B
:1003D0008F71014091F4805191F4005141F400413A
:1003E00051F0800189B24AF82510DFF8D40700687F
:1003F00040698047002000E00220BDE8F087F8B5A2
:10040000DFF8B8170868457935F0800637000868C6
:100410004079000606D5DFF8B80750F8274014F0F9
:10042000300405E0DFF8A80750F8274014F44054E2
:10043000DFF890070078874209D2086840880028D2
:1004400005D1002C03D00868807A002801D1022051
:1004500028E0280610D5DFF8782752F8270048F65C
:10046000BF71014091F0100141F4004151F0800151
:1004700089B242F827100FE0DFF8542752F827001E
:100480004BF68F71014091F4805141F4004151F0DD
:10049000800189B242F82710DFF8240700688069DC
:1004A00080470020F2BD80B5DFF810170868407A59
:1004B00050F0200009684872DFF804070068C0693E
:1004C0008047002002BD10B40200DFF8F04620682B
:1004D000438A100080B2002805D18888C01A246899
:1004E0002082002001E00868184410BC70472DE904
:1004F000F041DFF8C856286810F110063488B0685B
:1005000000281AD0002C18D0B788BC4200D227008F
:10051000380080B2B168884780463088C01B308080
:10052000708838187080002000F0A4FC3A0092B265
:10053000010089B2404600F02CFD308800280CD024
:100540004FF44051DFF8900601800021002000F0B8
:100550009FFC3021DFF8840601803188B088814219
:1005600003D30320296808721AE03088002803D0DA
:1005700005202968087213E03088002810D1062071
:10058000296808720020DFF858160A6892B2DFF86E
:10059000541611EB420108603021DFF8400601805B
:1005A000BDE8F0812DE9F843DFF81076386810F1E6
:1005B0001008B8F800403868007A002C22D10428CE
:1005C00020D1DFF824160A78012A14D10022DFF89E
:1005D0001036D3F800C01FFA8CFCDFF8083613EB96
:1005E0004C031A603023DFF8F42513805FF0040910
:1005F00000220A7005E05FF007091022DFF8DC1521
:100600000A8034E0B8F804100E00A64202D35FF06E
:10061000040901E05FF00209B44200D22600300074
:1006200080B2D8F8081088470500002000F014FCBC
:10063000320092B2010089B2280000F08BFC310038
:1006400089B2002000F024FCB8F80000801BA8F854
:100650000000B8F802003018A8F802003021DFF8D6
:100660007C0501804FF44051DFF86C05018038684B
:1006700080F80890BDE8F18370B50226DFF83C45AC
:10068000206845782068007810F07F0F42D1092D4E
:1006900003D1FFF742FD06005CE0052D14D1206870
:1006A000C07880280BDA20688078002807D120687D
:1006B0008088002803D12068807A002801D0082093
:1006C0006FE00020060045E0032D0ED12068C078C1
:1006D000012807D120688088002803D1FFF7E3FEB6
:1006E000060037E00220060034E0012D32D12068F8
:1006F000C07801280BD120688088002807D12068A5
:10070000407A800603D5FFF7DFFD060022E00220D5
:1007100006001FE02068007810F07F00012805D156
:100720000B2D17D1FFF72FFD060013E0206800788E
:1007300010F07F0002280BD1012D03D1FFF7C4FD7B
:10074000060007E0032D05D1FFF759FE060001E082
:10075000022006003000C0B200280DD02800C0B230
:10076000DFF8641409684969884706003000C0B2A0
:10077000032801D1092014E03000C0B2002801D0C4
:1007800008200EE006200021DFF8542413689BB2F5
:10079000DFF8502412EB430211603022DFF83C14E2
:1007A0000A802168087270BD2DE9F84FDFF80C74DB
:1007B000386846785FF000085FF00009062E26D101
:1007C0003868007810F07F0F40F0B180386880788A
:1007D0000100C9B2012905D1DFF8EC130968C96924
:1007E0008846A4E00100C9B2022905D1DFF8D81378
:1007F0000968096A88469AE00100C9B2032940F0F5
:100800009680DFF8C4130968496A88468FE0002E95
:1008100060D13868408800285CD13868C0880228D8
:1008200058D138680079002854D13868007810F021
:100830007F0F07D138688088002803D1DFF8AC0328
:10084000804674E03868007810F07F00012811D1EC
:10085000002138684079DFF8702312689269904768
:10086000002864D13868807A002860D0DFF87C03E3
:1008700080465CE03868007810F07F00022856D18E
:100880003868407910F00F0083463868407910F0DE
:100890007000040038684079000607D5DFF830039F
:1008A00050F82B0010F03000050006E0DFF82003C0
:1008B00050F82B0010F440500500DFF808030078D2
:1008C000834534D2002C32D1002D30D0DFF81C0308
:1008D00080462CE0082E07D13868007810F07F0F92
:1008E00025D1C348804622E00A2E20D138680078FE
:1008F00010F07F0001281AD13868807A002816D0BD
:1009000038684088002812D13868007900280ED154
:100910003868C08801280AD1002138684079AA4A7D
:10092000126892699047002801D1B248804640463B
:1009300000280AD03868A0F812903868C0F81880EB
:100940000020C0475FF0000A0EE0386840789E49FA
:1009500009680969884782465046C0B2032803D116
:1009600009203968087256E03868018A4FF6FF702E
:10097000814203D10920396808724CE05046C0B268
:10098000022803D03868008A002803D1082039687B
:10099000087240E038680078000635D53868C088AD
:1009A000009000983968098A884203D20099386813
:1009B000018220E03868008A3968C98888421AD2E2
:1009C00081493868008A0A6892F82C2092B29042D5
:1009D00003D20020844908700DE03868008A096855
:1009E00091F82C2090FBF2F102FB1100002802D1BB
:1009F00001217D4801707448006890F82C00396826
:100A00008882FFF7CFFD06E00320396808724FF4B3
:100A1000405171480180BDE8F18F70B501247048E4
:100A2000016889B2744810EB4100008841007348A6
:100A300001EB0006614D2868007A092822D0317840
:100A400028680170721C107829684870511C2000B9
:100A500080B201EB4006308800F070FAB11C2A68C1
:100A60005080200080B201EB4006308800F066FA2A
:100A7000B11C2A689080200080B201EB40063188CA
:100A80002868C1800121286801722868C088002870
:100A900002D1FFF7F1FD01E0FFF786FE00F04EF80E
:100AA00070BD70B5454C2068057A022D01D0042D2B
:100AB00004D1FFF777FD2068067A19E0062D16D1DC
:100AC0002068407805280CD12068007810F07F0F4E
:100AD00007D12068C07800F04EF839480068006AF5
:100AE00080473948006880688047082600E008266B
:100AF0002068067200F022F870BD70B52F4C206897
:100B0000057A022D01D0042D01D1082611E0032D14
:100B100001D0052D04D1FFF7EAFC2068067A08E031
:100B2000072D05D128480068C0688047082600E0E6
:100B300008262068067200F001F870BD80B52548CF
:100B400090F82C1089B2002000F0B2F91B4801681F
:100B5000097A082906D14FF480521F490A801022D1
:100B60001E490A800068007A092801D1012000E0AE
:100B70000020C0B202BD30B412490A78002393426B
:100B800014D2134C1900C9B254F8215048F68F7191
:100B90000D401900C9B20D4345F4004555F08005DC
:100BA0001900C9B244F821505B1CE8E70400E4B224
:100BB00054F0800412490C6030BC7047A40D002032
:100BC000AC0D0020E4000020A80D0020C20D002084
:100BD000005C004060000020C60D0020C80D002011
:100BE000505C004004600040CE0D0020EF01000882
:100BF000ED00000859010008086000400060004056
:100C00004C5C00407047F0B40246106895681318B9
:100C1000506803EB5004C00748BF4D44A3422DD099
:100C200013F8016B16F0030004BF13F8010BC01C8E
:100C300031090F2907D113F8011B0F3103E013F815
:100C4000017B05F8017B401EF9D10029E6D013F89D
:100C5000010BC6F38107032F08BF13F8017B00EBDC
:100C60000720404228440026B71E8F421EBF10F8BE
:100C7000017B05F8017B761CF6D1CFE7F0BC02F1D1
:100C80000C0070474FF6F8720240DFF898120A60C5
:100C9000704710B4DFF890320200D2B253F822400D
:100CA00048F68F1214400C43A4B20200D2B243F8AB
:100CB000224010BC704710B4DFF86C320200D2B290
:100CC00053F8224048F6BF722240CC0601D592F07C
:100CD00010028C0601D592F0200242F4004252F03C
:100CE000800292B20400E4B243F8242010BC7047A2
:100CF00010B4DFF834320200D2B253F822404BF67F
:100D00008F722240CC0401D592F480528C0401D51C
:100D100092F4005242F4004252F0800292B2040077
:100D2000E4B243F8242010BC7047DFF8FC21010036
:100D3000C9B252F8213048F6BF71194091F0100144
:100D400091F0200141F4004151F0800189B203008B
:100D5000DBB242F823107047DFF8CC210100C9B2A2
:100D600052F821304BF68F71194091F4805191F473
:100D7000005141F4004151F0800189B20300DBB21F
:100D800042F823107047DFF8A0210100C9B252F8E1
:100D9000213048F68F610B4043F4004353F0800349
:100DA0009BB20100C9B242F821307047DFF87821C8
:100DB0000100C9B252F8211049040ED50100C9B290
:100DC00052F8213048F68F710B4043F4404353F002
:100DD00080030100C9B242F821307047DFF8482192
:100DE0000100C9B252F8211049060ED50100C9B25E
:100DF00052F8213048F68F710B4043F4004353F012
:100E0000C0030100C9B242F821307047DFF8142155
:100E100013689BB20200D2B213EBC203DFF80C21BD
:100E200012EB43020B009BB25B089BB25B001360AA
:100E30007047DFF8F02013689BB20200D2B213EBC8
:100E4000C203DFF8EC2012EB43020B009BB25B08FD
:100E50009BB25B0013607047DFF8C810096889B265
:100E6000C0B211EBC001DFF8C40010EB4100006814
:100E700080B27047DFF8AC10096889B2C0B211EBDC
:100E8000C001DFF8AC0010EB4100006880B2704791
:100E9000DFF8902013689BB20200D2B213EBC203BA
:100EA000DFF8902012EB43020B009BB213607047F7
:100EB00010B4DFF8702013689BB20200D2B213EBBB
:100EC000C203DFF8742012EB43020B009BB23F2BEE
:100ED0000DDB0C00A4B264090B0013F01F0F00D14E
:100EE000641EA4B2A40254F40044146008E00C0090
:100EF000A4B26408CB0700D5641CA4B2A402146099
:100F000010BC7047DFF81C10096889B2C0B211EB41
:100F1000C001DFF8240010EB410000688005800D5F
:100F200070470000505C0040005C004000600040E2
:100F300008600040046000400C600040030019009D
:100F4000180080B2000A0A00D2B250EA022080B231
:100F500070470000F0B403001600B6B2761C76109D
:100F6000080080B2164F17EB4007300000280ED063
:100F700093F800C064465B1C93F800C054EA0C2C44
:100F800065463D80BF1CBF1C5B1C401EEEE7F0BCED
:100F9000704770B41400A4B2641C64100B009BB2C0
:100FA000074D15EB43052300002B06D02E68068065
:100FB0002D1D401C401C5B1EF6E770BC70470000F6
:100FC00000600040DFF888134888002802D0488875
:100FD000401E48807047DFF878030021A0F8041114
:100FE00090F8061111F0FE0180F8061100214180F1
:100FF00070472DE9F84F82460D0016005FF000099A
:10100000DFF850B34846C0B25BF8200000F0AEF9FC
:1010100004002200D2B24846C0B25BF8201028007B
:1010200000F0C0F900287BD131002000C9B2C0B265
:10103000814201D200207BE04946C9B20029022941
:1010400005D9C91E6CD18AF80090012070E08AF899
:10105000009000200090641C2000C0B2285C8DF835
:101060000000641C2000C0B2285C8DF80100641CE4
:101070002000C0B2285C8DF80200641C684600F0B5
:1010800069FA8046404680B2802801DB00204FE0AC
:101090008AF801804846C0B200283FD100200700EE
:1010A0003800C0B2285C762804D03800C0B2285C72
:1010B000562823D100200090BF1C3800C0B2285C05
:1010C0008DF800007F1C3800C0B2285C8DF801004C
:1010D0007F1C3800C0B2285C8DF802007F1C684677
:1010E00000F038FA0100080080B2B0F5807F01DB23
:1010F00000201DE08AF80210012019E07F1C390051
:101100003000C9B2C0B28142CAD339003000C9B27E
:10111000C0B2814201D300200AE001E0012007E0D3
:1011200019F101094846C0B20428FFF669AF002052
:10113000BDE8F28F2DE9FC47854F7888002808D15B
:1011400097F80601C00704D5834800F039FAFFF785
:1011500042FF00F042FA002800F0F48000F003FAA9
:101160000600B7F80401002820D13000C0B265287D
:1011700012D197F8060150F0010087F806014FF4EC
:10118000FA707880B7F8040138440671B7F80401A2
:10119000401CA7F8040108E03000C0B20D2804D1BB
:1011A0006D4800F00DFAFFF716FFCBE04FF4FA7030
:1011B00078803000C0B20D2840F0B180B7F804014B
:1011C0000428C0F0A680B7F80421D2B2391D07F276
:1011D0000710FFF70EFF002806D15F4800F0F0F976
:1011E000FFF7F9FE0020AEE097F80701002856D07F
:1011F00002287AD05DD3032840F0808000200400CC
:10120000002000F08BFAC0B200F0C0F9002000F01E
:1012100085FAC0B200F0BAF92000C0B2000900F0AF
:101220007DFAC0B200F0B2F914F00F0000F076FAC7
:10123000C0B200F0ABF93A2000F0A8F9202000F08D
:10124000A5F900200500454F2100C9B22800C0B211
:101250004118785CC0B2000900F060FAC0B200F03A
:1012600095F92100C9B22800C0B24118785C10F08D
:101270000F0000F053FAC0B200F088F9202000F00F
:1012800085F96D1C2800C0B20828DCDB2FA000F017
:1012900097F908342000C0B28028B1DB35E097F818
:1012A00009012E4997F8082188542D4800F088F943
:1012B0002BE05FF008085FF00009EA464A46414625
:1012C000504600F06DFA6946244897F80821805C82
:1012D00080B200F02CFA234800F072F9684600F062
:1012E0006FF91AA000F06CF90FE000201B4997F885
:1012F000082188541C4800F063F906E0164800F005
:101300005FF9FFF768FE00201DE0FFF764FE012093
:1013100019E0114800F054F9FFF75DFE12E0B7F84C
:10132000040138440671B7F80401401CA7F8040111
:10133000B7F80401B0F5807F04DB074800F040F9FE
:10134000FFF749FE0020BDE8F68700000D0A000007
:10135000F40A0020202F0008702F0008000C002045
:101360004C2F0008A42E0008102F000800F10103E4
:10137000810704D010F8011B820781B1FAD10268FD
:10138000A2F10131914311F0803104BF50F8042FD4
:10139000F6E709BAB1FA81F100EBD100401CC01A9E
:1013A000704700000300002013F0030F09D0521E05
:1013B00022BF13F8010B11F801CBB0EB0C00F3D0F6
:1013C000704711F0030F14D1121F22BF53F8040B02
:1013D00051F804CB6045F7D0121D0AD200BA9CFA2E
:1013E0008CFCB0EB0C0038BF6FF0000088BF012010
:1013F0007047521E22BF13F8010B11F801CBB0EB5E
:101400000C00F6D0521C08BF104670472DE9F84F6B
:1014100084B00BB100241C608346D84601E008F17B
:10142000010898F80030A3F109000528F7D3202B14
:10143000F5D02D2B16BF2B2B18F8014B2B24002A8F
:10144000019103D4012A01D0252A04DB00295AD0B6
:10145000C1F800B057E0002A0CDD102A04BF98F84C
:101460000000302802BF98F8010040F020007828E2
:1014700011D10CE098F80000302818BF0A220AD1D8
:1014800098F8010040F02000782803D1102208F1DC
:10149000020800E00822CDF80C8001E008F1010804
:1014A00098F800003028F9D0064D7D4416354FF0ED
:1014B000000905F12800CDF80880CA468DF8000023
:1014C00016460BE0C817000007469DF800003F1ABB
:1014D000CA46FFB206FB097908F1010898F8001026
:1014E000A1F141001A2838BF2031324605F1280009
:1014F00000F08AF90028E7D10399414505D1019808
:1015000008B1C0F800B0002020E00299A85DA8EB67
:101510000101091A002910D406DCB9EB070703D32F
:10152000B7FBF6F0504508D0AFF30080049808B13F
:10153000012101604FF0FF3903E02D2C08BFC9F1F4
:101540000009019808B1C0F80080484605B0BDE820
:10155000F08F04E000E000000A220021F9E70023F8
:1015600054E7000070476B48B0F8021AB0F8003A30
:101570000A0092B29342F9D0B0F8022A521CD20566
:10158000D20DA0F8022A92B2805C70476149B1F88E
:10159000042A521C5205520D13009BB20B4483F8CF
:1015A0000002A1F8042A91F8093A13F0FD0381F82A
:1015B000093A91F8093A13F0FB0381F8093A7047A8
:1015C00038B50400002025002878002804D02878A9
:1015D000FFF7DCFF6D1CF7E731BD4E49B1F8020A99
:1015E000B1F8001A80B2814201D0012000E0002051
:1015F000C0B270472DE9F84F474E40F225573900E9
:10160000300000F06EF9002810D0300000F065F9CD
:1016100083464048B0F8001A491CC905C90D0D00A1
:10162000A0F8005A290089B200F801B040F22779E9
:101630004946300000F055F9002832D0DFF8D48058
:10164000B8F8040A05002900B8F8060A89B28142F0
:1016500011D0B8F8060A401C4005400D0400A8F857
:10166000064A200080B2404490F8001289B230004F
:1016700000F02FF915E040F2266A5146300000F0E4
:1016800065F901225146300000F0EAF8002249468F
:10169000300000F0E5F898F8090A50F0020088F8E8
:1016A000090A40F226684146300000F01AF9002885
:1016B00020D04146300000F049F9164890F8091A48
:1016C000890717D590F8091A11F0FD0180F8091A59
:1016D00090F8091A51F0040180F8091AFFF742FF47
:1016E00000224146300000F0BBF8012239003000F2
:1016F00000F0B6F84FF45871300000F0F2F800280E
:1017000004D04FF45871300000F020F9BDE8F18F9B
:1017100000000000E8000020004400400100C9B2C1
:101720000A2901DA303000E03730C0B27047F0B437
:101730000025020092B2002A2AD00022130042F2B1
:10174000107214001A00D2B2052A24D20700BFB2C8
:10175000220092B297FBF2F21600320092B2002AF7
:1017600003D12A00D2B2002A0CD016F130020A703E
:10177000491C80B23700BFB2220092B202FB1700B0
:1017800001221500A4B20A2294FBF2F45B1CD9E7F3
:1017900030220A70491C00220A70F0BC7047000019
:1017A00062F30F2262F31F42401810F0030308D0C7
:1017B000C91A1FD3DB0748BF00F8012D28BF20F846
:1017C000022D130030B414461546103928BF20E905
:1017D0003C00FAD8490728BF20E90C0048BF40F870
:1017E000042D890028BF20F8022D48BF00F8012DE4
:1017F00030BC7047C91818BF00F8012DCB0728BFAF
:1018000000F8012D70470000C9B2830706D0521EB0
:1018100022D310F8013B9942F7D11FE0083A13D3C5
:1018200002F1040241EA012141EA014150F8043B7E
:10183000121F21BF4B40A3F1013C2CEA030C1CF00A
:10184000803FF3D0C9B2001F0832521E24BF10F8E7
:10185000013B91EA030FF8D818BF0120401E7047E2
:101860002DE9F04100230024002500268C4640F697
:101870006A171FFA8CFCBC4580460F00FFB27F0937
:10188000FFB28C461FFA8CFC1CF01F0C5FF0010E9F
:101890001EFA0CFE012F02D118F10C0806E0022FEF
:1018A00002D118F1100801E018F114081300DBB29E
:1018B000002B06D0D8F800305EEA0303C8F80030E9
:1018C00005E0D8F8003033EA0E03C8F80030BDE870
:1018D000F081CA05D20D828070478088C005C00D96
:1018E0007047F0B4040000270020002200260D00FD
:1018F00040F66A13ADB29D420D00EDB26D09EDB236
:101900000B009BB213F01F035FF0010C1CFA03F3F2
:10191000012D02D1A089034006E0022D02D1208AC8
:10192000034001E0A08A03400A0092B2120A92B278
:101930001CFA02F220880240002B03D0002A01D0BA
:10194000012000E00020C0B2F0BC704770B400225B
:1019500000230D0040F66A14ADB2A5420E00B6B2E7
:10196000360A0124B4402500ADB2ED43058070BCB9
:101970007047000080B500F0D1F900209349096854
:10198000887200F037FA00F03DFB00F0B6F9002154
:101990008F48016001BD80B58C48002201688A72C1
:1019A0008C49CA7901684A7200210068C17200201E
:1019B000FFF768F94FF400710020FFF76AF9102172
:1019C0000020FFF778F940210020FFF732FA80214C
:1019D0000020FFF71BFA0020FFF7D5F97E4890F8AA
:1019E0002C1089B20020FFF763FA0020FFF7B4F94A
:1019F00000210120FFF74DF9C0210120FFF706FA71
:101A000020210120FFF757F900210120FFF770F98D
:101A10004FF4C0610220FFF73CF94FF480710220BF
:101A2000FFF7F4F900210220FFF762F920210220DC
:101A3000FFF741F900210320FFF72BF94FF48871DC
:101A40000320FFF7F6F940210320FFF731FA4FF4A6
:101A500040510320FFF74CF900210320FFF72BF939
:101A60000020FFF788F801215948016001BD5B495A
:101A7000887A002802D00522554802607047042168
:101A800053480160704710B5554C2078202803D189
:101A900000F034F90020207010BD704738B5040004
:101AA00000252000C0B221280AD1484800680078EB
:101AB00010F07F00212814D10FF2D900050010E0AA
:101AC0002000C0B220280CD140480068007810F0F7
:101AD0007F00212802D10FF2D900050020214048C3
:101AE00001702800002801D1022008E03749086869
:101AF00085610020096848820020A847002032BD87
:101B0000010032480068007810F07F0021280BD1D6
:101B10000800C0B2022801D1002006E00800C0B2CF
:101B2000222801D1002000E00220704710B50400F7
:101B30002C49200080B2FEF7C6FC10BD10B5040091
:101B40002949200080B2FEF7BEFC10BD38B5040064
:101B50001E480068C5782800C0B2052801DB0020B7
:101B600008E022492800C0B201EBC001200080B289
:101B7000FEF7A9FC32BD02000800C0B2002801D067
:101B8000022006E01000C0B2022801DB022000E0C3
:101B9000002070470100080080B2002805D108200D
:101BA0000A4A12681082002000E0114870470000C5
:101BB0000100080080B2002805D10820034A1268FD
:101BC0001082002000E00A4870470000A40D0020A9
:101BD000B80D0020DC2C0008600000207C0D0020E7
:101BE000D10D0020B4000020BC000020C400002063
:101BF000580000201CB50121082000F03CFA534C8D
:101C00004FF48051200000F0ECFA4FF48050ADF812
:101C1000000003208DF8020014208DF803006946AF
:101C2000200000F04DFA0121042000F016FA4FF4D4
:101C3000C050ADF8000018208DF8030003208DF887
:101C400002006946424800F03BFA5FF4802000F051
:101C50000EFB40485FF480210160082141710121A1
:101C6000817100F0C7FA13BD80B5002000F0F2F9D1
:101C700001215FF4000000F00CFA01BD10B5374CF3
:101C8000A07A002803D005213348016002E0012139
:101C90003148016000F0FAFA10BD80B54FF4A06041
:101CA00000F080FB14208DF8000002208DF8010068
:101CB00000208DF8020001208DF80300684600F036
:101CC00076FB2A208DF8000001208DF8010068467F
:101CD00000F06DFB01BD10B504002000C0B200286B
:101CE00005D04FF48051194800F07FFA04E04FF41A
:101CF0008051164800F075FA10BD704701207047FA
:101D000070B504000E0000253000C0B2854204D238
:101D1000605D00F0AFFB6D1CF6E770BDF8B51048D4
:101D2000046810480568104807683C19002C0BD05F
:101D30000E4E0822B11C200000F01AF8042216F101
:101D40001201280000F014F8F1BD0000000C014061
:101D500000080140980D0020B80D00207C0D0020E7
:101D6000E8F7FF1FECF7FF1FF0F7FF1F040000204C
:101D700030B4002400231D001400EDB2E4B2A542EB
:101D80001BD20400240F0A2C07D205002D0F30357A
:101D90001C00E4B201F8145006E005002D0F3735A1
:101DA0001C00E4B201F81450000100241D00EDB243
:101DB00001EB45056C705B1CDDE730BC704738B546
:101DC00004000D002800C0B2402811DA2A00D2B267
:101DD00092B2C0212000FFF7BDF82900C9B289B234
:101DE0000120FFF755F80120FEF79FFF012000E0DA
:101DF000002032BD10B50120FFF76DFF01217848AA
:101E00000A0092B20260774A0023138013880360AD
:101E10000024754B1C604FF4E0531380128802605D
:101E2000002010BDF8B500200021002200926C4A6D
:101E300016680024082C08D26C4850F824309BB255
:101E40006B4840F82430641CF4E756F48066300098
:101E500080B2106056F00106300080B210604FF67C
:101E6000FE700640300080B210605F4803685B057A
:101E7000FBD54FF6FF3303600023082B08D25C4CE0
:101E800054F82350ADB2594C44F823505B1CF4E78E
:101E900056F008063400A4B21460156855F0040525
:101EA0002C00A4B21460534C27680097D4F800C0EB
:101EB0005FEA9C0C5FEA8C0C5CF0010CC4F800C07B
:101EC0004D4FD7F800E05EF0040EC7F800E0D0F800
:101ED00000E05FEACE4E05D430BF386830F0040031
:101EE000386010E04EF6FF71016011684FF6F77030
:101EF00001400D00280080B2106000982060386812
:101F000030F004003860F1BD38B5354C25684FF627
:101F1000FB700540280080B22060FFF7AFFE4FF451
:101F20003F40206031BD70B504002000C0B20728DA
:101F300001D032480470314E3078002808D0022891
:101F40001AD011D3042825D01BD305282FD043E065
:101F50002B480068002804D1FFF7D6FF0620307018
:101F600001E00520307039E0FFF7CEFF042030702B
:101F700001212348016031E002207070032030709D
:101F80002CE07078401E70707078002801D1042019
:101F9000307023E01248016851F010010D00290053
:101FA00089B20160052030700A20707016E07078E8
:101FB000401E7070707800280DD109490A684FF6EC
:101FC000EF7002401500280080B2086006203070D3
:101FD00000210B48016001E00620307070BD000058
:101FE000405C0040C40D0020445C0040005C0040A8
:101FF0005C0D00200070004010ED00E0CC0D0020D2
:10200000BC0D002000210548016005494FF43F4008
:10201000088009880348016000207047445C004044
:10202000C40D0020405C0040F8B507000C000025FE
:1020300017F07F00FEF766FF060017F07F00FEF73F
:1020400019FF320092B2010089B22000FEF7A1FF11
:102050003000F2BD1649086070470A00D2B2002A6B
:1020600004D0144B1A6802431A6003E0114B1A683B
:1020700082431A6070470A00D2B2002A04D00E4B85
:102080001A6802431A6003E00B4B1A6882431A6015
:1020900070470A00D2B2002A04D0084B1A680243E3
:1020A0001A6003E0054B1A6882431A60704700000B
:1020B000D800424214100240181002401C10024086
:1020C000F0B5002200235FF0000C0024002500265C
:1020D000CF7817F00F0791F803E05FEACE6E01D5D5
:1020E0008A7817430A88D2B2002A34D002681500D1
:1020F00000229446BCF1080F2CD2012212FA0CFEE9
:102100007446B1F800E014EA0E0E7346A3421ED1E5
:102110005FEA8C0E74465FF00F0E1EFA04FE7646E0
:10212000B543AE4617FA04F555EA0E0591F803E0FB
:10213000BEF1280F03D112FA0CF2426107E091F8C8
:1021400003E0BEF1480F02D112FA0CF202611CF159
:10215000010CCFE705600A88B2F5807F32DB426868
:10216000150000229446BCF1080F2AD25FF0010E40
:102170001CF108021EFA02F214000A882240130021
:10218000A3421BD15FEA8C0214000F22A24016006A
:10219000B5432A0017FA04F51543CA78282A04D152
:1021A0001CF108021EFA02F24261CA78482A05D1DF
:1021B0001CF108021EFA02FEC0F810E01CF1010C2E
:1021C000D1E74560F0BD10B4020000239468080018
:1021D00080B2044201D0012000E00020C0B210BC57
:1021E00070470A0092B2026170470A0092B24261DF
:1021F0007047000070B400241F4B1A008179002939
:102200002DD01D4D2C6801688C432C601B4D2C6813
:1022100001688C432C6001798A18146801680C43AA
:102220001460174C256801688D432560154D2E6894
:1022300001688E432E604179102908D12368016816
:102240000B4323602B6801680B432B600DE0417941
:10225000CB181A00136801680B43136005E001797D
:102260008A18136801688B43136070BC7047064975
:1022700008607047000000000004014004040140B1
:10228000080401400C0401401404014080B53E499B
:10229000086850F0010008603C4A13683C4803405D
:1022A00013600B683B4803400B60086830F48020E3
:1022B0000860106830F4FE0010605FF41F013648BB
:1022C000016000F005F85FF000613448016001BD75
:1022D00080B500F001F801BD82B00020019000201F
:1022E00000902949086850F480300860086810F4AC
:1022F000003000900198401C01900098002803D104
:102300000198B0F5A06FF1D10868800302D50120D3
:10231000009001E0002000900098012831D1204871
:10232000026852F010020260026892089200026095
:10233000026852F0020202601448026802600268F9
:102340000260026852F480620260026832F47C1219
:102350000260026852F4E81202600A6852F0807269
:102360000A600A689201FCD5016889088900016049
:10237000016851F002010160016811F00C010829A7
:10238000FAD102B070470000001002400410024071
:102390000000FFF8FFFFF6FE0810024008ED00E025
:1023A000002002401B4A02431B490A607047F0B4F8
:1023B000002200230F24C17800291FD01649096884
:1023C00011F4E061D1F5E061090AD1F104052B00B7
:1023D000CC4046789E40857825402E433601320019
:1023E0000E4E057872550125067816F01F06B54089
:1023F0000B4F0678761147F8265009E00121057841
:1024000015F01F05A940074E05786D1146F82510F7
:10241000F0BC70470000FA050CED00E000E400E0BD
:1024200000E100E080E100E01CB54FF48050ADF821
:10243000000014208DF8030003208DF80200314CB9
:1024400069462000FFF73CFE4FF480512000FFF763
:10245000CCFE2D4800F098F84FF480512000FFF793
:10246000C0FEFFF7C7FBFFF7FFFBFFF716FC00F00E
:10247000C3F813BD2549B1F8003A5B1CDB05DB0D41
:10248000A1F8003A1A0092B2885470471F48B0F879
:10249000061A491C4905490DA0F8061A89B20844D4
:1024A00090F8000270471949B1F8060AB1F8041A09
:1024B00080B2814201D0012000E00020C0B270470C
:1024C00038B5FFF7F0FF00281AD0114C94F83D0002
:1024D000002815D100200500FFF7D8FF60556D1CBE
:1024E000FFF7E1FF002801D03C2DF5D384F83C50E4
:1024F00094F83C102000FFF762FC022084F83D00B5
:1025000031BD000000080140A0860100E800002065
:10251000DC0C002033494878002802D04878401E5F
:102520004870704780B501210420FFF7A4FD012108
:102530000820FFF7A0FD01211020FFF79CFD0121DD
:102540002020FFF798FD01210120FFF794FD01BD38
:1025500080B500F00BF8FFF7E5FFFFF765FF00F02F
:1025600069F800F081F800F0EAF801BD1E4908683A
:1025700050F08070086000211C4801601C49086808
:1025800050F001000860704738B50400174805682E
:10259000482000FB0455280000F022F90028FAD159
:1025A00031BD80B5FFF7D4FF62B6FFF723FBFFF71D
:1025B0005BFBFFF772FB00F01FF80A490A20487026
:1025C00048780028FCD100F0D4F8052109480170B2
:1025D000FFF776FFFEF7AEFD0028F4D000F0BFF85D
:1025E000F1E70000800C0020FCED00E0041000E0AA
:1025F000001000E0C00D002080B5084908480860C0
:10260000022009680872074807490160074A08491B
:102610000A6000680068804701BD00BFA40D00206B
:102620007C0D0020A80D00206000002090000020FC
:10263000AC0D0020044805490860054908600721E1
:102640000448016070470000E8180B0014E000E047
:1026500018E000E010E000E080B5FFF75BFF00F05D
:1026600059F8FEF7AFFC01BD1FB519208DF8000029
:1026700000208DF8010000208DF8020001208DF867
:1026800003006846FFF793FE01214FF40060FFF757
:10269000F2FC01A800F002F90020ADF8060019488C
:1026A00001681948B1FBF0F0401EADF8040040F29B
:1026B000E730ADF80800154C01A9200000F09CF8A7
:1026C00001220121200000F004F90121200000F086
:1026D000F1F81FBD10B50D4C0121200000F005F9E7
:1026E00000280DD00121200000F016F9084991F8CA
:1026F0003D00002804D091F83D00401E81F83D00C7
:1027000010BD00000000002040420F00002C0140DE
:10271000DC0C00202F490878002802D00878401EE1
:1027200008704878002802D04878401E48702A492E
:102730004888002802D04888401E4880704780B5ED
:102740004FF40050ADF8000010208DF80300032076
:102750008DF8020069462148FFF7B2FC01BD80B543
:1027600005211C4841704FF400511C48FFF73DFD06
:1027700001BD38B5174C207800281AD060780028A1
:1027800027D101206070154D4FF400512800FFF74C
:102790001AFD002805D04FF400512800FFF725FD51
:1027A00017E0082060704FF400512800FFF719FD72
:1027B0000FE0607800280CD1084C4FF40051200045
:1027C000FFF701FD002804D14FF400512000FFF76E
:1027D00008FD31BDC00D0020A00D002000100140FB
:1027E00004490968081A002801D5012000E00020EA
:1027F000C0B27047041000E010B400220488DFF873
:10280000883098420FD0DFF8202190420BD0B0F1F1
:10281000804F08D01D4A904205D01D4A904202D0F8
:102820001C4A904205D14FF68F72144022004C880A
:102830001443194A904209D0DFF8E820904205D0AD
:102840004FF6FF4214402200CC88144304808A884B
:1028500082850A88028598420FD0DFF8CC2090420A
:102860000BD0DFF8C820904207D0DFF8C420904298
:1028700003D0DFF8C020904201D10A7A02860122FB
:10288000828210BC70470000002C01400004004010
:1028900000080040000C0040001000404FF6FF719F
:1028A0008180002101800021C18000214180002120
:1028B000017270470A00D2B2002A04D0028852F096
:1028C0000102028004E003884FF6FE721340038089
:1028D00070471300DBB2002B03D083890B43838145
:1028E00002E083898B4383817047F0B402000023A8
:1028F00000200027148A0C4095890D402600B6B2AE
:10290000002E05D0280080B2002801D0012000E070
:102910000020C0B2F0BC70470A0092B2D2430282DB
:1029200070470000001400400034014000400140A6
:1029300000440140004801402DE9FC410020ADF871
:1029400000006F4800686F490880000440F1D6809D
:102950006D4C088810F00F0020702078002840F09F
:102960009C80DFF8A8816A4C2068A8F80000694DB7
:10297000B8F8000010F030002880B8F8000010F41B
:102980004050A8F800004BF6BF76206880B2304077
:1029900090F4005090F0200048F2800780B2384355
:1029A00020600888C00624D4216889B248F60F70D8
:1029B00001402160FEF775F8206880B20640B8F843
:1029C0000000C00401D596F48056B8F800008004D9
:1029D00001D596F400562888C00601D596F0100659
:1029E0002888800601D596F02006B6B23E432660C0
:1029F00084E02068ADF80000BDF80000000523D594
:102A0000216840F68F7001402160FEF706F82068CB
:102A100080B20640B8F80000C00401D596F4805694
:102A2000B8F80000800401D596F400562888C00646
:102A300001D596F010062888800601D596F020066C
:102A4000B6B23E43266059E0BDF8000000047FF5B1
:102A500078AF216840F68F7001402160FEF74DF895
:102A6000206880B20640B8F80000C00401D596F492
:102A70008056B8F80000800401D596F400562888E6
:102A8000C00601D596F010062888800601D596F07C
:102A90002006B6B23E43266030E01D4D207855F842
:102AA0002000ADF80000BDF8000000040FD520782C
:102AB00055F8201040F68F700140207845F820101E
:102AC0001548217800EB810050F8040C8047BDF8D0
:102AD000000000067FF535AF207855F8201089B248
:102AE00048F60F700140207845F820100B482178F7
:102AF00000EB810050F8040C804722E7BDE8F38129
:102B0000445C0040CA0D0020CF0D0020C60D0020FF
:102B1000005C0040C80D00203C0000202000002088
:102B2000F8B588B000274D4C4D4D286820804D4E9B
:102B3000218830880140880506D54FF6FF5028606F
:102B400049490878401C08702188308801400804F1
:102B500001D5FFF7F1FE218830880140480505D5F1
:102B60004FF6FF3028604148406880472188308810
:102B70000140880402D54DF6FF7028602188308816
:102B80000140C80405D54EF6FF7028600020FFF70D
:102B9000CAF921883088014008050CD534480078EE
:102BA000002805D033480068052801D1FFF73AF91D
:102BB0004FF2FF702860218830880140C8054AD54F
:102BC0004FF6FF6028602C48006800043DD52B4874
:102BD0000168491C01600168042939D328490A6841
:102BE000120735D4274A0B689BB213600023082BC9
:102BF00008D2254C54F82340A4B26E4646F8234030
:102C00005B1CF4E7146854F0010414601468A4B267
:102C10000C601468640864001460126892B20A6060
:102C200029684905FCD54FF6FF3129600027082F98
:102C300008D2694651F8271089B2134A42F8271082
:102C40007F1CF4E70021016002E000200B490860CE
:102C50000720FFF768F909B0F0BD00BFCA0D0020DA
:102C6000445C0040C40D0020D00D00206000002016
:102C7000E6000020B80D0020485C0040B00D0020A8
:102C8000405C0040B40D0020005C004000002115B5
:102C9000110E0D0C0B0B0A0A09090909090808088D
:102CA00008080808070707070707070707070707B0
:102CB000070000003031323334353637383961623D
:102CC000636465666768696A6B6C6D6E6F7071725C
:102CD000737475767778797A0000000009024300F2
:102CE000020100C0320904000001020201000524B3
:102CF000001001052401000104240202052406003D
:102D000001070582030800FF09040100020A000010
:102D10000007050302400000070581024000000093
:102D200030B4002412E050F8043BDA0744BF4B44AF
:102D30005B1E091F042943F8044BFAD21A468D077B
:102D400044BF1C80921CCB0748BF147050F8041B72
:102D50000029E8D130BC70473203530054004D00C5
:102D600033003200200056006900720074007500C4
:102D700061006C00200043004F004D002000500017
:102D80006F007200740020002000000010B5034A9C
:102D90007A440832024C7C44A41D03E06C0000001D
:102DA0008800000004E01168101D114488470246A5
:102DB000A242F8D110BD00002603530054004D007C
:102DC0006900630072006F0065006C0065006300BD
:102DD000740072006F006E006900630073000000F1
:102DE000704738B5074C21000320FFF71DF9050097
:102DF0002900C9B22000FEF783FF0320FDF7ACFFD6
:102E000031BD00001C0D002019FFFFFFEC0C00007D
:102E1000E800002000000000EFDDFFFF34020000AA
:102E2000100100000000002000F00DF8002801D083
:102E3000FFF7ACFFAFF300800020AFF30080FFF797
:102E4000B0FB00F002F80120704700F001B800006C
:102E50000746384600F002F8FBE7000080B5AFF304
:102E60000080024A11001820ABBEFBE726000200DA
:102E70000548014603B4684680F30988AFF3008033
:102E8000AFF30080FFF7D0FFA5EDF5FE4155544F9D
:102E9000523A20414C4558455920535441524F53C2
:102EA00054494E0052454144494E472052455355DE
:102EB0004C543A20000000001201000202000040C1
:102EC00083044057000201020301000080B5FFF7B0
:102ED00027FE01BD80B55FF48020FFF7C8F901BD72
:102EE000656570726F6D202D77202D6100000000E8
:102EF000656570726F6D202D72202D6100000000DD
:102F0000656570726F6D202D65202D6100000000D9
:102F10004552415345204F4B2E2E0D0A0000000014
:102F2000E02E0008F02E0008002F0008402F0008B7
:102F300001488047014800478D220008712E000893
:102F4000656570726F6D202D640000005752495402
:102F500045204F4B0D0A0000446563203134203278
:102F60003032340031383A35353A3432000000001E
:102F70004552524F520D0A003C3C3C2000000000DC
:102F8000414C494345000000203E3E3E0000000009
:102F900004030904FFF7FEBFFFF7FEBFFFF7FEBF04
:102FA000FFF7FEBFFFF7FEBFFFF7FEBFFFF7FEBF55
:102FB000FFF7FEBFFFF7FEBFFFF7FEBFFFF7FEBF45
:102FC000FFF7FEBFFFF7FEBFFFF7FEBFFFF7FEBF35
:102FD000FFF7FEBFFFF7FEBFFFF7FEBFFFF7FEBF25
:102FE000FFF7FEBFFFF7FEBFFFF7FEBFFFF7FEBF15
:102FF000FFF7FEBFFFF7FEBFFFF7FEBFFFF7FEBF05
:10300000FFF7FEBFFFF7FEBFFFF7FEBFFFF7FEBFF4
:10301000FFF7FEBFFFF7FEBFFFF7FEBFFFF7FEBFE4
:10302000FFF7FEBFFFF7FEBFFFF7FEBFFFF7FEBFD4
:10303000FFF7FEBFFFF7FEBFFFF7FEBFFFF7FEBFC4
:10304000FFF7FEBFFFF7FEBFFFF7FEBFFFF7FEBFB4
:10305000E00E00A24A041A03530054004D0033004E
:10306000320001F0040DE12D0008050C04F202E32A
:1030700024100100C2014C100508007519000897C2
:10308000041003871A00089B04129D041003011BFF
:1030900000087704122D04123D04124D0421791208
:1030A0004005213CF3096F1A6C127F1C1003B82EE7
:1030B0000008122C1003DC2C000843081003902F8A
:1030C0000008040812B88812260812580821CA11EC
:0830D0001423201A080301017A
:0400000508002E7150
:00000001FF
